{
  "_format": "hh-sol-artifact-1",
  "contractName": "MirrorPost",
  "sourceName": "contracts/MirrorPost.sol",
  "abi": [
    {
      "anonymous": false,
      "inputs": [
        {
          "indexed": false,
          "internalType": "uint256",
          "name": "id",
          "type": "uint256"
        },
        {
          "indexed": false,
          "internalType": "address",
          "name": "author",
          "type": "address"
        },
        {
          "indexed": false,
          "internalType": "string",
          "name": "content",
          "type": "string"
        },
        {
          "indexed": false,
          "internalType": "uint256",
          "name": "timestamp",
          "type": "uint256"
        }
      ],
      "name": "PostCreated",
      "type": "event"
    },
    {
      "anonymous": false,
      "inputs": [
        {
          "indexed": false,
          "internalType": "uint256",
          "name": "id",
          "type": "uint256"
        },
        {
          "indexed": false,
          "internalType": "address",
          "name": "liker",
          "type": "address"
        }
      ],
      "name": "PostLiked",
      "type": "event"
    },
    {
      "inputs": [
        {
          "internalType": "string",
          "name": "_content",
          "type": "string"
        }
      ],
      "name": "createPost",
      "outputs": [],
      "stateMutability": "nonpayable",
      "type": "function"
    },
    {
      "inputs": [],
      "name": "getAllPosts",
      "outputs": [
        {
          "components": [
            {
              "internalType": "uint256",
              "name": "id",
              "type": "uint256"
            },
            {
              "internalType": "address",
              "name": "author",
              "type": "address"
            },
            {
              "internalType": "string",
              "name": "content",
              "type": "string"
            },
            {
              "internalType": "uint256",
              "name": "timestamp",
              "type": "uint256"
            },
            {
              "internalType": "uint256",
              "name": "likes",
              "type": "uint256"
            }
          ],
          "internalType": "struct MirrorPost.Post[]",
          "name": "",
          "type": "tuple[]"
        }
      ],
      "stateMutability": "view",
      "type": "function"
    },
    {
      "inputs": [
        {
          "internalType": "uint256",
          "name": "_postId",
          "type": "uint256"
        }
      ],
      "name": "getPost",
      "outputs": [
        {
          "components": [
            {
              "internalType": "uint256",
              "name": "id",
              "type": "uint256"
            },
            {
              "internalType": "address",
              "name": "author",
              "type": "address"
            },
            {
              "internalType": "string",
              "name": "content",
              "type": "string"
            },
            {
              "internalType": "uint256",
              "name": "timestamp",
              "type": "uint256"
            },
            {
              "internalType": "uint256",
              "name": "likes",
              "type": "uint256"
            }
          ],
          "internalType": "struct MirrorPost.Post",
          "name": "",
          "type": "tuple"
        }
      ],
      "stateMutability": "view",
      "type": "function"
    },
    {
      "inputs": [
        {
          "internalType": "uint256",
          "name": "_postId",
          "type": "uint256"
        }
      ],
      "name": "likePost",
      "outputs": [],
      "stateMutability": "nonpayable",
      "type": "function"
    },
    {
      "inputs": [
        {
          "internalType": "uint256",
          "name": "",
          "type": "uint256"
        },
        {
          "internalType": "address",
          "name": "",
          "type": "address"
        }
      ],
      "name": "likes",
      "outputs": [
        {
          "internalType": "bool",
          "name": "",
          "type": "bool"
        }
      ],
      "stateMutability": "view",
      "type": "function"
    },
    {
      "inputs": [],
      "name": "postCount",
      "outputs": [
        {
          "internalType": "uint256",
          "name": "",
          "type": "uint256"
        }
      ],
      "stateMutability": "view",
      "type": "function"
    },
    {
      "inputs": [
        {
          "internalType": "uint256",
          "name": "",
          "type": "uint256"
        }
      ],
      "name": "posts",
      "outputs": [
        {
          "internalType": "uint256",
          "name": "id",
          "type": "uint256"
        },
        {
          "internalType": "address",
          "name": "author",
          "type": "address"
        },
        {
          "internalType": "string",
          "name": "content",
          "type": "string"
        },
        {
          "internalType": "uint256",
          "name": "timestamp",
          "type": "uint256"
        },
        {
          "internalType": "uint256",
          "name": "likes",
          "type": "uint256"
        }
      ],
      "stateMutability": "view",
      "type": "function"
    }
  ],
  "bytecode": "0x608060405234801561001057600080fd5b50611534806100206000396000f3fe608060405234801561001057600080fd5b506004361061007d5760003560e01c806340731c241161005b57806340731c24146100f25780635c12c07714610122578063725009d314610152578063c7303c611461016e5761007d565b80630b1e7f831461008257806317906c2e146100b657806330561100146100d4575b600080fd5b61009c600480360381019061009791906109f0565b61018a565b6040516100ad959493929190610afd565b60405180910390f35b6100be610268565b6040516100cb9190610b57565b60405180910390f35b6100dc61026e565b6040516100e99190610d12565b60405180910390f35b61010c600480360381019061010791906109f0565b610442565b6040516101199190610daa565b60405180910390f35b61013c60048036038101906101379190610df8565b6105c5565b6040516101499190610e53565b60405180910390f35b61016c600480360381019061016791906109f0565b6105f4565b005b61018860048036038101906101839190610ed3565b6107b2565b005b60006020528060005260406000206000915090508060000154908060010160009054906101000a900473ffffffffffffffffffffffffffffffffffffffff16908060020180546101d990610f4f565b80601f016020809104026020016040519081016040528092919081815260200182805461020590610f4f565b80156102525780601f1061022757610100808354040283529160200191610252565b820191906000526020600020905b81548152906001019060200180831161023557829003601f168201915b5050505050908060030154908060040154905085565b60025481565b6060600060025467ffffffffffffffff81111561028e5761028d610f80565b5b6040519080825280602002602001820160405280156102c757816020015b6102b461096b565b8152602001906001900390816102ac5790505b5090506000600190505b600254811161043a576000808281526020019081526020016000206040518060a0016040529081600082015481526020016001820160009054906101000a900473ffffffffffffffffffffffffffffffffffffffff1673ffffffffffffffffffffffffffffffffffffffff1673ffffffffffffffffffffffffffffffffffffffff16815260200160028201805461036790610f4f565b80601f016020809104026020016040519081016040528092919081815260200182805461039390610f4f565b80156103e05780601f106103b5576101008083540402835291602001916103e0565b820191906000526020600020905b8154815290600101906020018083116103c357829003601f168201915b50505050508152602001600382015481526020016004820154815250508260018361040b9190610fde565b8151811061041c5761041b611012565b5b6020026020010181905250808061043290611041565b9150506102d1565b508091505090565b61044a61096b565b60008211801561045c57506002548211155b61049b576040517f08c379a0000000000000000000000000000000000000000000000000000000008152600401610492906110d5565b60405180910390fd5b6000808381526020019081526020016000206040518060a0016040529081600082015481526020016001820160009054906101000a900473ffffffffffffffffffffffffffffffffffffffff1673ffffffffffffffffffffffffffffffffffffffff1673ffffffffffffffffffffffffffffffffffffffff16815260200160028201805461052890610f4f565b80601f016020809104026020016040519081016040528092919081815260200182805461055490610f4f565b80156105a15780601f10610576576101008083540402835291602001916105a1565b820191906000526020600020905b81548152906001019060200180831161058457829003601f168201915b50505050508152602001600382015481526020016004820154815250509050919050565b60016020528160005260406000206020528060005260406000206000915091509054906101000a900460ff1681565b60008111801561060657506002548111155b610645576040517f08c379a000000000000000000000000000000000000000000000000000000000815260040161063c906110d5565b60405180910390fd5b6001600082815260200190815260200160002060003373ffffffffffffffffffffffffffffffffffffffff1673ffffffffffffffffffffffffffffffffffffffff16815260200190815260200160002060009054906101000a900460ff16156106e3576040517f08c379a00000000000000000000000000000000000000000000000000000000081526004016106da90611141565b60405180910390fd5b600180600083815260200190815260200160002060003373ffffffffffffffffffffffffffffffffffffffff1673ffffffffffffffffffffffffffffffffffffffff16815260200190815260200160002060006101000a81548160ff021916908315150217905550600080828152602001908152602001600020600401600081548092919061077190611041565b91905055507fcf765d6f163c9b0d832e2a94f4c8e9bffd32a2c3ca5fdbb8cc67b5fe1441f41381336040516107a7929190611161565b60405180910390a150565b600082829050116107f8576040517f08c379a00000000000000000000000000000000000000000000000000000000081526004016107ef906111d6565b60405180910390fd5b6002600081548092919061080b90611041565b91905055506040518060a0016040528060025481526020013373ffffffffffffffffffffffffffffffffffffffff16815260200183838080601f016020809104026020016040519081016040528093929190818152602001838380828437600081840152601f19601f820116905080830192505050505050508152602001428152602001600081525060008060025481526020019081526020016000206000820151816000015560208201518160010160006101000a81548173ffffffffffffffffffffffffffffffffffffffff021916908373ffffffffffffffffffffffffffffffffffffffff160217905550604082015181600201908161090e91906113a2565b5060608201518160030155608082015181600401559050507f285db98a4632176385795ddf0d2b67cef1a21f47eb2f5d06f786ab6b5147e2006002543384844260405161095f9594939291906114b0565b60405180910390a15050565b6040518060a0016040528060008152602001600073ffffffffffffffffffffffffffffffffffffffff1681526020016060815260200160008152602001600081525090565b600080fd5b600080fd5b6000819050919050565b6109cd816109ba565b81146109d857600080fd5b50565b6000813590506109ea816109c4565b92915050565b600060208284031215610a0657610a056109b0565b5b6000610a14848285016109db565b91505092915050565b610a26816109ba565b82525050565b600073ffffffffffffffffffffffffffffffffffffffff82169050919050565b6000610a5782610a2c565b9050919050565b610a6781610a4c565b82525050565b600081519050919050565b600082825260208201905092915050565b60005b83811015610aa7578082015181840152602081019050610a8c565b60008484015250505050565b6000601f19601f8301169050919050565b6000610acf82610a6d565b610ad98185610a78565b9350610ae9818560208601610a89565b610af281610ab3565b840191505092915050565b600060a082019050610b126000830188610a1d565b610b1f6020830187610a5e565b8181036040830152610b318186610ac4565b9050610b406060830185610a1d565b610b4d6080830184610a1d565b9695505050505050565b6000602082019050610b6c6000830184610a1d565b92915050565b600081519050919050565b600082825260208201905092915050565b6000819050602082019050919050565b610ba7816109ba565b82525050565b610bb681610a4c565b82525050565b600082825260208201905092915050565b6000610bd882610a6d565b610be28185610bbc565b9350610bf2818560208601610a89565b610bfb81610ab3565b840191505092915050565b600060a083016000830151610c1e6000860182610b9e565b506020830151610c316020860182610bad565b5060408301518482036040860152610c498282610bcd565b9150506060830151610c5e6060860182610b9e565b506080830151610c716080860182610b9e565b508091505092915050565b6000610c888383610c06565b905092915050565b6000602082019050919050565b6000610ca882610b72565b610cb28185610b7d565b935083602082028501610cc485610b8e565b8060005b85811015610d005784840389528151610ce18582610c7c565b9450610cec83610c90565b925060208a01995050600181019050610cc8565b50829750879550505050505092915050565b60006020820190508181036000830152610d2c8184610c9d565b905092915050565b600060a083016000830151610d4c6000860182610b9e565b506020830151610d5f6020860182610bad565b5060408301518482036040860152610d778282610bcd565b9150506060830151610d8c6060860182610b9e565b506080830151610d9f6080860182610b9e565b508091505092915050565b60006020820190508181036000830152610dc48184610d34565b905092915050565b610dd581610a4c565b8114610de057600080fd5b50565b600081359050610df281610dcc565b92915050565b60008060408385031215610e0f57610e0e6109b0565b5b6000610e1d858286016109db565b9250506020610e2e85828601610de3565b9150509250929050565b60008115159050919050565b610e4d81610e38565b82525050565b6000602082019050610e686000830184610e44565b92915050565b600080fd5b600080fd5b600080fd5b60008083601f840112610e9357610e92610e6e565b5b8235905067ffffffffffffffff811115610eb057610eaf610e73565b5b602083019150836001820283011115610ecc57610ecb610e78565b5b9250929050565b60008060208385031215610eea57610ee96109b0565b5b600083013567ffffffffffffffff811115610f0857610f076109b5565b5b610f1485828601610e7d565b92509250509250929050565b7f4e487b7100000000000000000000000000000000000000000000000000000000600052602260045260246000fd5b60006002820490506001821680610f6757607f821691505b602082108103610f7a57610f79610f20565b5b50919050565b7f4e487b7100000000000000000000000000000000000000000000000000000000600052604160045260246000fd5b7f4e487b7100000000000000000000000000000000000000000000000000000000600052601160045260246000fd5b6000610fe9826109ba565b9150610ff4836109ba565b925082820390508181111561100c5761100b610faf565b5b92915050565b7f4e487b7100000000000000000000000000000000000000000000000000000000600052603260045260246000fd5b600061104c826109ba565b91507fffffffffffffffffffffffffffffffffffffffffffffffffffffffffffffffff820361107e5761107d610faf565b5b600182019050919050565b7f496e76616c696420706f73742049440000000000000000000000000000000000600082015250565b60006110bf600f83610a78565b91506110ca82611089565b602082019050919050565b600060208201905081810360008301526110ee816110b2565b9050919050565b7f416c7265616479206c696b656400000000000000000000000000000000000000600082015250565b600061112b600d83610a78565b9150611136826110f5565b602082019050919050565b6000602082019050818103600083015261115a8161111e565b9050919050565b60006040820190506111766000830185610a1d565b6111836020830184610a5e565b9392505050565b7f436f6e74656e742063616e6e6f7420626520656d707479000000000000000000600082015250565b60006111c0601783610a78565b91506111cb8261118a565b602082019050919050565b600060208201905081810360008301526111ef816111b3565b9050919050565b60008190508160005260206000209050919050565b60006020601f8301049050919050565b600082821b905092915050565b6000600883026112587fffffffffffffffffffffffffffffffffffffffffffffffffffffffffffffffff8261121b565b611262868361121b565b95508019841693508086168417925050509392505050565b6000819050919050565b600061129f61129a611295846109ba565b61127a565b6109ba565b9050919050565b6000819050919050565b6112b983611284565b6112cd6112c5826112a6565b848454611228565b825550505050565b600090565b6112e26112d5565b6112ed8184846112b0565b505050565b5b81811015611311576113066000826112da565b6001810190506112f3565b5050565b601f82111561135657611327816111f6565b6113308461120b565b8101602085101561133f578190505b61135361134b8561120b565b8301826112f2565b50505b505050565b600082821c905092915050565b60006113796000198460080261135b565b1980831691505092915050565b60006113928383611368565b9150826002028217905092915050565b6113ab82610a6d565b67ffffffffffffffff8111156113c4576113c3610f80565b5b6113ce8254610f4f565b6113d9828285611315565b600060209050601f83116001811461140c57600084156113fa578287015190505b6114048582611386565b86555061146c565b601f19841661141a866111f6565b60005b828110156114425784890151825560018201915060208501945060208101905061141d565b8683101561145f578489015161145b601f891682611368565b8355505b6001600288020188555050505b505050505050565b82818337600083830152505050565b600061148f8385610a78565b935061149c838584611474565b6114a583610ab3565b840190509392505050565b60006080820190506114c56000830188610a1d565b6114d26020830187610a5e565b81810360408301526114e5818587611483565b90506114f46060830184610a1d565b969550505050505056fea264697066735822122008b85c677e15c82af7f4da06eb8f9e48c4829ca983983f346d7504f84eb70d2564736f6c63430008140033",
  "linkReferences": {},
  "deployedLinkReferences": {}
}