{
  "_format": "hh-sol-artifact-1",
  "contractName": "MirrorPost",
  "sourceName": "contracts/MirrorPost.sol",
  "abi": [
    {
      "anonymous": false,
      "inputs": [
        {
          "indexed": true,
          "internalType": "uint256",
          "name": "commentId",
          "type": "uint256"
        },
        {
          "indexed": true,
          "internalType": "uint256",
          "name": "postId",
          "type": "uint256"
        },
        {
          "indexed": true,
          "internalType": "uint256",
          "name": "subCommunityId",
          "type": "uint256"
        },
        {
          "indexed": false,
          "internalType": "address",
          "name": "author",
          "type": "address"
        },
        {
          "indexed": false,
          "internalType": "string",
          "name": "username",
          "type": "string"
        },
        {
          "indexed": false,
          "internalType": "string",
          "name": "content",
          "type": "string"
        },
        {
          "indexed": false,
          "internalType": "uint256",
          "name": "timestamp",
          "type": "uint256"
        }
      ],
      "name": "CommentCreated",
      "type": "event"
    },
    {
      "anonymous": false,
      "inputs": [
        {
          "indexed": true,
          "internalType": "uint256",
          "name": "postId",
          "type": "uint256"
        },
        {
          "indexed": true,
          "internalType": "uint256",
          "name": "commentId",
          "type": "uint256"
        },
        {
          "indexed": true,
          "internalType": "address",
          "name": "moderator",
          "type": "address"
        }
      ],
      "name": "CommentDeleted",
      "type": "event"
    },
    {
      "anonymous": false,
      "inputs": [
        {
          "indexed": true,
          "internalType": "uint256",
          "name": "postId",
          "type": "uint256"
        },
        {
          "indexed": true,
          "internalType": "uint256",
          "name": "commentId",
          "type": "uint256"
        },
        {
          "indexed": true,
          "internalType": "address",
          "name": "liker",
          "type": "address"
        },
        {
          "indexed": false,
          "internalType": "uint256",
          "name": "likes",
          "type": "uint256"
        }
      ],
      "name": "CommentLiked",
      "type": "event"
    },
    {
      "anonymous": false,
      "inputs": [
        {
          "indexed": true,
          "internalType": "uint256",
          "name": "postId",
          "type": "uint256"
        },
        {
          "indexed": true,
          "internalType": "uint256",
          "name": "subCommunityId",
          "type": "uint256"
        },
        {
          "indexed": true,
          "internalType": "address",
          "name": "author",
          "type": "address"
        },
        {
          "indexed": false,
          "internalType": "string",
          "name": "username",
          "type": "string"
        },
        {
          "indexed": false,
          "internalType": "string",
          "name": "content",
          "type": "string"
        },
        {
          "indexed": false,
          "internalType": "uint256",
          "name": "timestamp",
          "type": "uint256"
        }
      ],
      "name": "PostCreated",
      "type": "event"
    },
    {
      "anonymous": false,
      "inputs": [
        {
          "indexed": true,
          "internalType": "uint256",
          "name": "postId",
          "type": "uint256"
        },
        {
          "indexed": true,
          "internalType": "address",
          "name": "moderator",
          "type": "address"
        }
      ],
      "name": "PostDeleted",
      "type": "event"
    },
    {
      "anonymous": false,
      "inputs": [
        {
          "indexed": true,
          "internalType": "uint256",
          "name": "postId",
          "type": "uint256"
        },
        {
          "indexed": true,
          "internalType": "address",
          "name": "liker",
          "type": "address"
        },
        {
          "indexed": false,
          "internalType": "uint256",
          "name": "likes",
          "type": "uint256"
        }
      ],
      "name": "PostLiked",
      "type": "event"
    },
    {
      "anonymous": false,
      "inputs": [
        {
          "indexed": true,
          "internalType": "uint256",
          "name": "subCommunityId",
          "type": "uint256"
        },
        {
          "indexed": false,
          "internalType": "string",
          "name": "name",
          "type": "string"
        },
        {
          "indexed": false,
          "internalType": "string",
          "name": "description",
          "type": "string"
        },
        {
          "indexed": false,
          "internalType": "address",
          "name": "creator",
          "type": "address"
        }
      ],
      "name": "SubCommunityCreated",
      "type": "event"
    },
    {
      "anonymous": false,
      "inputs": [
        {
          "indexed": true,
          "internalType": "address",
          "name": "user",
          "type": "address"
        },
        {
          "indexed": false,
          "internalType": "string",
          "name": "username",
          "type": "string"
        }
      ],
      "name": "UsernameSet",
      "type": "event"
    },
    {
      "inputs": [],
      "name": "commentCount",
      "outputs": [
        {
          "internalType": "uint256",
          "name": "",
          "type": "uint256"
        }
      ],
      "stateMutability": "view",
      "type": "function"
    },
    {
      "inputs": [
        {
          "internalType": "uint256",
          "name": "",
          "type": "uint256"
        },
        {
          "internalType": "uint256",
          "name": "",
          "type": "uint256"
        }
      ],
      "name": "comments",
      "outputs": [
        {
          "internalType": "uint256",
          "name": "commentId",
          "type": "uint256"
        },
        {
          "internalType": "uint256",
          "name": "postId",
          "type": "uint256"
        },
        {
          "internalType": "uint256",
          "name": "subCommunityId",
          "type": "uint256"
        },
        {
          "internalType": "address",
          "name": "author",
          "type": "address"
        },
        {
          "internalType": "string",
          "name": "username",
          "type": "string"
        },
        {
          "internalType": "string",
          "name": "content",
          "type": "string"
        },
        {
          "internalType": "uint256",
          "name": "timestamp",
          "type": "uint256"
        },
        {
          "internalType": "uint256",
          "name": "likes",
          "type": "uint256"
        },
        {
          "internalType": "bool",
          "name": "isDeleted",
          "type": "bool"
        }
      ],
      "stateMutability": "view",
      "type": "function"
    },
    {
      "inputs": [
        {
          "internalType": "uint256",
          "name": "postId",
          "type": "uint256"
        },
        {
          "internalType": "string",
          "name": "content",
          "type": "string"
        }
      ],
      "name": "createComment",
      "outputs": [],
      "stateMutability": "nonpayable",
      "type": "function"
    },
    {
      "inputs": [
        {
          "internalType": "uint256",
          "name": "subCommunityId",
          "type": "uint256"
        },
        {
          "internalType": "string",
          "name": "content",
          "type": "string"
        }
      ],
      "name": "createPost",
      "outputs": [],
      "stateMutability": "nonpayable",
      "type": "function"
    },
    {
      "inputs": [
        {
          "internalType": "string",
          "name": "name",
          "type": "string"
        },
        {
          "internalType": "string",
          "name": "description",
          "type": "string"
        }
      ],
      "name": "createSubCommunity",
      "outputs": [],
      "stateMutability": "nonpayable",
      "type": "function"
    },
    {
      "inputs": [
        {
          "internalType": "uint256",
          "name": "postId",
          "type": "uint256"
        },
        {
          "internalType": "uint256",
          "name": "commentId",
          "type": "uint256"
        }
      ],
      "name": "deleteComment",
      "outputs": [],
      "stateMutability": "nonpayable",
      "type": "function"
    },
    {
      "inputs": [
        {
          "internalType": "uint256",
          "name": "postId",
          "type": "uint256"
        }
      ],
      "name": "deletePost",
      "outputs": [],
      "stateMutability": "nonpayable",
      "type": "function"
    },
    {
      "inputs": [],
      "name": "getAllSubCommunities",
      "outputs": [
        {
          "components": [
            {
              "internalType": "uint256",
              "name": "subCommunityId",
              "type": "uint256"
            },
            {
              "internalType": "string",
              "name": "name",
              "type": "string"
            },
            {
              "internalType": "string",
              "name": "description",
              "type": "string"
            },
            {
              "internalType": "address",
              "name": "creator",
              "type": "address"
            }
          ],
          "internalType": "struct MirrorPost.SubCommunity[]",
          "name": "",
          "type": "tuple[]"
        }
      ],
      "stateMutability": "view",
      "type": "function"
    },
    {
      "inputs": [
        {
          "internalType": "uint256",
          "name": "postId",
          "type": "uint256"
        }
      ],
      "name": "getComments",
      "outputs": [
        {
          "components": [
            {
              "internalType": "uint256",
              "name": "commentId",
              "type": "uint256"
            },
            {
              "internalType": "uint256",
              "name": "postId",
              "type": "uint256"
            },
            {
              "internalType": "uint256",
              "name": "subCommunityId",
              "type": "uint256"
            },
            {
              "internalType": "address",
              "name": "author",
              "type": "address"
            },
            {
              "internalType": "string",
              "name": "username",
              "type": "string"
            },
            {
              "internalType": "string",
              "name": "content",
              "type": "string"
            },
            {
              "internalType": "uint256",
              "name": "timestamp",
              "type": "uint256"
            },
            {
              "internalType": "uint256",
              "name": "likes",
              "type": "uint256"
            },
            {
              "internalType": "bool",
              "name": "isDeleted",
              "type": "bool"
            }
          ],
          "internalType": "struct MirrorPost.Comment[]",
          "name": "",
          "type": "tuple[]"
        }
      ],
      "stateMutability": "view",
      "type": "function"
    },
    {
      "inputs": [
        {
          "internalType": "uint256",
          "name": "postId",
          "type": "uint256"
        }
      ],
      "name": "getPost",
      "outputs": [
        {
          "components": [
            {
              "internalType": "uint256",
              "name": "postId",
              "type": "uint256"
            },
            {
              "internalType": "uint256",
              "name": "subCommunityId",
              "type": "uint256"
            },
            {
              "internalType": "address",
              "name": "author",
              "type": "address"
            },
            {
              "internalType": "string",
              "name": "username",
              "type": "string"
            },
            {
              "internalType": "string",
              "name": "content",
              "type": "string"
            },
            {
              "internalType": "uint256",
              "name": "timestamp",
              "type": "uint256"
            },
            {
              "internalType": "uint256",
              "name": "likes",
              "type": "uint256"
            },
            {
              "internalType": "bool",
              "name": "isDeleted",
              "type": "bool"
            },
            {
              "internalType": "bool",
              "name": "exists",
              "type": "bool"
            }
          ],
          "internalType": "struct MirrorPost.Post",
          "name": "",
          "type": "tuple"
        }
      ],
      "stateMutability": "view",
      "type": "function"
    },
    {
      "inputs": [
        {
          "internalType": "uint256",
          "name": "subCommunityId",
          "type": "uint256"
        }
      ],
      "name": "getPostsInSubCommunity",
      "outputs": [
        {
          "components": [
            {
              "internalType": "uint256",
              "name": "postId",
              "type": "uint256"
            },
            {
              "internalType": "uint256",
              "name": "subCommunityId",
              "type": "uint256"
            },
            {
              "internalType": "address",
              "name": "author",
              "type": "address"
            },
            {
              "internalType": "string",
              "name": "username",
              "type": "string"
            },
            {
              "internalType": "string",
              "name": "content",
              "type": "string"
            },
            {
              "internalType": "uint256",
              "name": "timestamp",
              "type": "uint256"
            },
            {
              "internalType": "uint256",
              "name": "likes",
              "type": "uint256"
            },
            {
              "internalType": "bool",
              "name": "isDeleted",
              "type": "bool"
            },
            {
              "internalType": "bool",
              "name": "exists",
              "type": "bool"
            }
          ],
          "internalType": "struct MirrorPost.Post[]",
          "name": "",
          "type": "tuple[]"
        }
      ],
      "stateMutability": "view",
      "type": "function"
    },
    {
      "inputs": [
        {
          "internalType": "uint256",
          "name": "subCommunityId",
          "type": "uint256"
        }
      ],
      "name": "getSubCommunity",
      "outputs": [
        {
          "components": [
            {
              "internalType": "uint256",
              "name": "subCommunityId",
              "type": "uint256"
            },
            {
              "internalType": "string",
              "name": "name",
              "type": "string"
            },
            {
              "internalType": "string",
              "name": "description",
              "type": "string"
            },
            {
              "internalType": "address",
              "name": "creator",
              "type": "address"
            }
          ],
          "internalType": "struct MirrorPost.SubCommunity",
          "name": "",
          "type": "tuple"
        }
      ],
      "stateMutability": "view",
      "type": "function"
    },
    {
      "inputs": [
        {
          "internalType": "address",
          "name": "user",
          "type": "address"
        }
      ],
      "name": "getUser",
      "outputs": [
        {
          "components": [
            {
              "internalType": "string",
              "name": "username",
              "type": "string"
            },
            {
              "internalType": "bool",
              "name": "exists",
              "type": "bool"
            }
          ],
          "internalType": "struct MirrorPost.User",
          "name": "",
          "type": "tuple"
        }
      ],
      "stateMutability": "view",
      "type": "function"
    },
    {
      "inputs": [
        {
          "internalType": "uint256",
          "name": "postId",
          "type": "uint256"
        },
        {
          "internalType": "uint256",
          "name": "commentId",
          "type": "uint256"
        }
      ],
      "name": "likeComment",
      "outputs": [],
      "stateMutability": "nonpayable",
      "type": "function"
    },
    {
      "inputs": [
        {
          "internalType": "uint256",
          "name": "postId",
          "type": "uint256"
        }
      ],
      "name": "likePost",
      "outputs": [],
      "stateMutability": "nonpayable",
      "type": "function"
    },
    {
      "inputs": [],
      "name": "postCount",
      "outputs": [
        {
          "internalType": "uint256",
          "name": "",
          "type": "uint256"
        }
      ],
      "stateMutability": "view",
      "type": "function"
    },
    {
      "inputs": [
        {
          "internalType": "uint256",
          "name": "",
          "type": "uint256"
        }
      ],
      "name": "posts",
      "outputs": [
        {
          "internalType": "uint256",
          "name": "postId",
          "type": "uint256"
        },
        {
          "internalType": "uint256",
          "name": "subCommunityId",
          "type": "uint256"
        },
        {
          "internalType": "address",
          "name": "author",
          "type": "address"
        },
        {
          "internalType": "string",
          "name": "username",
          "type": "string"
        },
        {
          "internalType": "string",
          "name": "content",
          "type": "string"
        },
        {
          "internalType": "uint256",
          "name": "timestamp",
          "type": "uint256"
        },
        {
          "internalType": "uint256",
          "name": "likes",
          "type": "uint256"
        },
        {
          "internalType": "bool",
          "name": "isDeleted",
          "type": "bool"
        },
        {
          "internalType": "bool",
          "name": "exists",
          "type": "bool"
        }
      ],
      "stateMutability": "view",
      "type": "function"
    },
    {
      "inputs": [
        {
          "internalType": "string",
          "name": "username",
          "type": "string"
        }
      ],
      "name": "setUsername",
      "outputs": [],
      "stateMutability": "nonpayable",
      "type": "function"
    },
    {
      "inputs": [
        {
          "internalType": "uint256",
          "name": "",
          "type": "uint256"
        }
      ],
      "name": "subCommunities",
      "outputs": [
        {
          "internalType": "uint256",
          "name": "subCommunityId",
          "type": "uint256"
        },
        {
          "internalType": "string",
          "name": "name",
          "type": "string"
        },
        {
          "internalType": "string",
          "name": "description",
          "type": "string"
        },
        {
          "internalType": "address",
          "name": "creator",
          "type": "address"
        }
      ],
      "stateMutability": "view",
      "type": "function"
    },
    {
      "inputs": [],
      "name": "subCommunityCount",
      "outputs": [
        {
          "internalType": "uint256",
          "name": "",
          "type": "uint256"
        }
      ],
      "stateMutability": "view",
      "type": "function"
    },
    {
      "inputs": [
        {
          "internalType": "uint256",
          "name": "",
          "type": "uint256"
        },
        {
          "internalType": "uint256",
          "name": "",
          "type": "uint256"
        }
      ],
      "name": "subCommunityPosts",
      "outputs": [
        {
          "internalType": "uint256",
          "name": "",
          "type": "uint256"
        }
      ],
      "stateMutability": "view",
      "type": "function"
    },
    {
      "inputs": [
        {
          "internalType": "address",
          "name": "",
          "type": "address"
        }
      ],
      "name": "users",
      "outputs": [
        {
          "internalType": "string",
          "name": "username",
          "type": "string"
        },
        {
          "internalType": "bool",
          "name": "exists",
          "type": "bool"
        }
      ],
      "stateMutability": "view",
      "type": "function"
    }
  ],
  "bytecode": "0x608060405234801561001057600080fd5b50614dc9806100206000396000f3fe608060405234801561001057600080fd5b50600436106101415760003560e01c80635da3d936116100b85780638e22f2331161007c5780638e22f233146103b7578063a0e91821146103d5578063a87430ba146103f1578063a9ca3a4c14610422578063ed59313a1461043e578063fc6c776f1461045a57610141565b80635da3d936146102ec578063632562a2146103085780636f77926b1461033b578063725009d31461036b5780638b767c051461038757610141565b806323edf6971161010a57806323edf6971461020657806331a4bcb51461023657806340731c241461025257806340a179851461028257806345ff20de1461029e57806351b19ded146102bc57610141565b806204e47614610146578063094cd5ee146101765780630a193703146101925780630b1e7f83146101b057806317906c2e146101e8575b600080fd5b610160600480360381019061015b919061345a565b610492565b60405161016d91906135d1565b60405180910390f35b610190600480360381019061018b919061345a565b6106e8565b005b61019a610921565b6040516101a7919061371f565b60405180910390f35b6101ca60048036038101906101c5919061345a565b610b74565b6040516101df999897969594939291906137c4565b60405180910390f35b6101f0610d0c565b6040516101fd919061385f565b60405180910390f35b610220600480360381019061021b919061345a565b610d12565b60405161022d9190613a17565b60405180910390f35b610250600480360381019061024b9190613a39565b611173565b005b61026c6004803603810190610267919061345a565b6113e1565b6040516102799190613b45565b60405180910390f35b61029c60048036038101906102979190613c9c565b61164a565b005b6102a6611b15565b6040516102b3919061385f565b60405180910390f35b6102d660048036038101906102d1919061345a565b611b1b565b6040516102e39190613e86565b60405180910390f35b61030660048036038101906103019190613ea8565b611f5f565b005b610322600480360381019061031d919061345a565b61212d565b6040516103329493929190613f20565b60405180910390f35b61035560048036038101906103509190613f9f565b61228d565b6040516103629190614009565b60405180910390f35b6103856004803603810190610380919061345a565b612393565b005b6103a1600480360381019061039c9190613a39565b612530565b6040516103ae919061385f565b60405180910390f35b6103bf612561565b6040516103cc919061385f565b60405180910390f35b6103ef60048036038101906103ea9190613a39565b612567565b005b61040b60048036038101906104069190613f9f565b6127ef565b60405161041992919061402b565b60405180910390f35b61043c60048036038101906104379190613c9c565b6128a8565b005b6104586004803603810190610453919061405b565b612d39565b005b610474600480360381019061046f9190613a39565b613154565b604051610489999897969594939291906140a4565b60405180910390f35b61049a6132ec565b600073ffffffffffffffffffffffffffffffffffffffff166005600084815260200190815260200160002060030160009054906101000a900473ffffffffffffffffffffffffffffffffffffffff1673ffffffffffffffffffffffffffffffffffffffff160361053f576040517f08c379a00000000000000000000000000000000000000000000000000000000081526004016105369061418b565b60405180910390fd5b6005600083815260200190815260200160002060405180608001604052908160008201548152602001600182018054610577906141da565b80601f01602080910402602001604051908101604052809291908181526020018280546105a3906141da565b80156105f05780601f106105c5576101008083540402835291602001916105f0565b820191906000526020600020905b8154815290600101906020018083116105d357829003601f168201915b50505050508152602001600282018054610609906141da565b80601f0160208091040260200160405190810160405280929190818152602001828054610635906141da565b80156106825780601f1061065757610100808354040283529160200191610682565b820191906000526020600020905b81548152906001019060200180831161066557829003601f168201915b505050505081526020016003820160009054906101000a900473ffffffffffffffffffffffffffffffffffffffff1673ffffffffffffffffffffffffffffffffffffffff1673ffffffffffffffffffffffffffffffffffffffff16815250509050919050565b600073ffffffffffffffffffffffffffffffffffffffff166003600083815260200190815260200160002060020160009054906101000a900473ffffffffffffffffffffffffffffffffffffffff1673ffffffffffffffffffffffffffffffffffffffff160361078d576040517f08c379a000000000000000000000000000000000000000000000000000000000815260040161078490614257565b60405180910390fd5b6003600082815260200190815260200160002060070160009054906101000a900460ff16156107f1576040517f08c379a00000000000000000000000000000000000000000000000000000000081526004016107e8906142c3565b60405180910390fd5b3373ffffffffffffffffffffffffffffffffffffffff16600560006003600085815260200190815260200160002060010154815260200190815260200160002060030160009054906101000a900473ffffffffffffffffffffffffffffffffffffffff1673ffffffffffffffffffffffffffffffffffffffff16146108ab576040517f08c379a00000000000000000000000000000000000000000000000000000000081526004016108a290614355565b60405180910390fd5b60016003600083815260200190815260200160002060070160006101000a81548160ff0219169083151502179055503373ffffffffffffffffffffffffffffffffffffffff16817f1da4a15b15417b54b8b3bea2ca87cfc4c94f0fee7d86702d0dab9e2906e7a7d360405160405180910390a350565b6060600060025467ffffffffffffffff81111561094157610940613b71565b5b60405190808252806020026020018201604052801561097a57816020015b6109676132ec565b81526020019060019003908161095f5790505b5090506000600190505b6002548111610b6c5760056000828152602001908152602001600020604051806080016040529081600082015481526020016001820180546109c5906141da565b80601f01602080910402602001604051908101604052809291908181526020018280546109f1906141da565b8015610a3e5780601f10610a1357610100808354040283529160200191610a3e565b820191906000526020600020905b815481529060010190602001808311610a2157829003601f168201915b50505050508152602001600282018054610a57906141da565b80601f0160208091040260200160405190810160405280929190818152602001828054610a83906141da565b8015610ad05780601f10610aa557610100808354040283529160200191610ad0565b820191906000526020600020905b815481529060010190602001808311610ab357829003601f168201915b505050505081526020016003820160009054906101000a900473ffffffffffffffffffffffffffffffffffffffff1673ffffffffffffffffffffffffffffffffffffffff1673ffffffffffffffffffffffffffffffffffffffff168152505082600183610b3d91906143a4565b81518110610b4e57610b4d6143d8565b5b60200260200101819052508080610b6490614407565b915050610984565b508091505090565b60036020528060005260406000206000915090508060000154908060010154908060020160009054906101000a900473ffffffffffffffffffffffffffffffffffffffff1690806003018054610bc9906141da565b80601f0160208091040260200160405190810160405280929190818152602001828054610bf5906141da565b8015610c425780601f10610c1757610100808354040283529160200191610c42565b820191906000526020600020905b815481529060010190602001808311610c2557829003601f168201915b505050505090806004018054610c57906141da565b80601f0160208091040260200160405190810160405280929190818152602001828054610c83906141da565b8015610cd05780601f10610ca557610100808354040283529160200191610cd0565b820191906000526020600020905b815481529060010190602001808311610cb357829003601f168201915b5050505050908060050154908060060154908060070160009054906101000a900460ff16908060070160019054906101000a900460ff16905089565b60005481565b6060600073ffffffffffffffffffffffffffffffffffffffff166003600084815260200190815260200160002060020160009054906101000a900473ffffffffffffffffffffffffffffffffffffffff1673ffffffffffffffffffffffffffffffffffffffff1603610db9576040517f08c379a0000000000000000000000000000000000000000000000000000000008152600401610db090614257565b60405180910390fd5b600080600190505b6001548111610e59578360046000868152602001908152602001600020600083815260200190815260200160002060010154148015610e32575060046000858152602001908152602001600020600082815260200190815260200160002060080160009054906101000a900460ff16155b15610e46578180610e4290614407565b9250505b8080610e5190614407565b915050610dc1565b5060008167ffffffffffffffff811115610e7657610e75613b71565b5b604051908082528060200260200182016040528015610eaf57816020015b610e9c61332a565b815260200190600190039081610e945790505b509050600080600190505b6001548111611167578560046000888152602001908152602001600020600083815260200190815260200160002060010154148015610f2b575060046000878152602001908152602001600020600082815260200190815260200160002060080160009054906101000a900460ff16155b1561115457600460008781526020019081526020016000206000828152602001908152602001600020604051806101200160405290816000820154815260200160018201548152602001600282015481526020016003820160009054906101000a900473ffffffffffffffffffffffffffffffffffffffff1673ffffffffffffffffffffffffffffffffffffffff1673ffffffffffffffffffffffffffffffffffffffff168152602001600482018054610fe4906141da565b80601f0160208091040260200160405190810160405280929190818152602001828054611010906141da565b801561105d5780601f106110325761010080835404028352916020019161105d565b820191906000526020600020905b81548152906001019060200180831161104057829003601f168201915b50505050508152602001600582018054611076906141da565b80601f01602080910402602001604051908101604052809291908181526020018280546110a2906141da565b80156110ef5780601f106110c4576101008083540402835291602001916110ef565b820191906000526020600020905b8154815290600101906020018083116110d257829003601f168201915b5050505050815260200160068201548152602001600782015481526020016008820160009054906101000a900460ff16151515158152505083838151811061113a576111396143d8565b5b6020026020010181905250818061115090614407565b9250505b808061115f90614407565b915050610eba565b50819350505050919050565b600073ffffffffffffffffffffffffffffffffffffffff1660046000848152602001908152602001600020600083815260200190815260200160002060030160009054906101000a900473ffffffffffffffffffffffffffffffffffffffff1673ffffffffffffffffffffffffffffffffffffffff1603611229576040517f08c379a00000000000000000000000000000000000000000000000000000000081526004016112209061449b565b60405180910390fd5b60046000838152602001908152602001600020600082815260200190815260200160002060080160009054906101000a900460ff161561129e576040517f08c379a000000000000000000000000000000000000000000000000000000000815260040161129590614507565b60405180910390fd5b3373ffffffffffffffffffffffffffffffffffffffff16600560006003600086815260200190815260200160002060010154815260200190815260200160002060030160009054906101000a900473ffffffffffffffffffffffffffffffffffffffff1673ffffffffffffffffffffffffffffffffffffffff1614611358576040517f08c379a000000000000000000000000000000000000000000000000000000000815260040161134f90614355565b60405180910390fd5b600160046000848152602001908152602001600020600083815260200190815260200160002060080160006101000a81548160ff0219169083151502179055503373ffffffffffffffffffffffffffffffffffffffff1681837f6ee692db105027f6f2626ec7348b1fee62bdd8b6aa9c2999ceed2aebd4dc3ee960405160405180910390a45050565b6113e961338e565b6003600083815260200190815260200160002060070160019054906101000a900460ff1661144c576040517f08c379a000000000000000000000000000000000000000000000000000000000815260040161144390614257565b60405180910390fd5b600360008381526020019081526020016000206040518061012001604052908160008201548152602001600182015481526020016002820160009054906101000a900473ffffffffffffffffffffffffffffffffffffffff1673ffffffffffffffffffffffffffffffffffffffff1673ffffffffffffffffffffffffffffffffffffffff1681526020016003820180546114e5906141da565b80601f0160208091040260200160405190810160405280929190818152602001828054611511906141da565b801561155e5780601f106115335761010080835404028352916020019161155e565b820191906000526020600020905b81548152906001019060200180831161154157829003601f168201915b50505050508152602001600482018054611577906141da565b80601f01602080910402602001604051908101604052809291908181526020018280546115a3906141da565b80156115f05780601f106115c5576101008083540402835291602001916115f0565b820191906000526020600020905b8154815290600101906020018083116115d357829003601f168201915b5050505050815260200160058201548152602001600682015481526020016007820160009054906101000a900460ff161515151581526020016007820160019054906101000a900460ff1615151515815250509050919050565b600073ffffffffffffffffffffffffffffffffffffffff166003600084815260200190815260200160002060020160009054906101000a900473ffffffffffffffffffffffffffffffffffffffff1673ffffffffffffffffffffffffffffffffffffffff16036116ef576040517f08c379a00000000000000000000000000000000000000000000000000000000081526004016116e690614257565b60405180910390fd5b6003600083815260200190815260200160002060070160009054906101000a900460ff1615611753576040517f08c379a000000000000000000000000000000000000000000000000000000000815260040161174a90614573565b60405180910390fd5b6000815111801561176757506101f4815111155b6117a6576040517f08c379a000000000000000000000000000000000000000000000000000000000815260040161179d906145df565b60405180910390fd5b600660003373ffffffffffffffffffffffffffffffffffffffff1673ffffffffffffffffffffffffffffffffffffffff16815260200190815260200160002060010160009054906101000a900460ff16611835576040517f08c379a000000000000000000000000000000000000000000000000000000000815260040161182c9061464b565b60405180910390fd5b6001600081548092919061184890614407565b91905055506040518061012001604052806001548152602001838152602001600360008581526020019081526020016000206001015481526020013373ffffffffffffffffffffffffffffffffffffffff168152602001600660003373ffffffffffffffffffffffffffffffffffffffff1673ffffffffffffffffffffffffffffffffffffffff16815260200190815260200160002060000180546118ec906141da565b80601f0160208091040260200160405190810160405280929190818152602001828054611918906141da565b80156119655780601f1061193a57610100808354040283529160200191611965565b820191906000526020600020905b81548152906001019060200180831161194857829003601f168201915b505050505081526020018281526020014281526020016000815260200160001515815250600460008481526020019081526020016000206000600154815260200190815260200160002060008201518160000155602082015181600101556040820151816002015560608201518160030160006101000a81548173ffffffffffffffffffffffffffffffffffffffff021916908373ffffffffffffffffffffffffffffffffffffffff1602179055506080820151816004019081611a299190614817565b5060a0820151816005019081611a3f9190614817565b5060c0820151816006015560e082015181600701556101008201518160080160006101000a81548160ff0219169083151502179055509050506003600083815260200190815260200160002060010154826001547f380c62bd2213166aa88c970b4d41f72d0ff0c5709b48ff55280cd428b5bc028533600660003373ffffffffffffffffffffffffffffffffffffffff1673ffffffffffffffffffffffffffffffffffffffff1681526020019081526020016000206000018642604051611b09949392919061496d565b60405180910390a45050565b60015481565b6060600073ffffffffffffffffffffffffffffffffffffffff166005600084815260200190815260200160002060030160009054906101000a900473ffffffffffffffffffffffffffffffffffffffff1673ffffffffffffffffffffffffffffffffffffffff1603611bc2576040517f08c379a0000000000000000000000000000000000000000000000000000000008152600401611bb99061418b565b60405180910390fd5b60006008600084815260200190815260200160002090506000805b8280549050811015611c505760036000848381548110611c0057611bff6143d8565b5b9060005260206000200154815260200190815260200160002060070160009054906101000a900460ff16611c3d578180611c3990614407565b9250505b8080611c4890614407565b915050611bdd565b5060008167ffffffffffffffff811115611c6d57611c6c613b71565b5b604051908082528060200260200182016040528015611ca657816020015b611c9361338e565b815260200190600190039081611c8b5790505b5090506000805b8480549050811015611f525760036000868381548110611cd057611ccf6143d8565b5b9060005260206000200154815260200190815260200160002060070160009054906101000a900460ff16611f3f5760036000868381548110611d1557611d146143d8565b5b906000526020600020015481526020019081526020016000206040518061012001604052908160008201548152602001600182015481526020016002820160009054906101000a900473ffffffffffffffffffffffffffffffffffffffff1673ffffffffffffffffffffffffffffffffffffffff1673ffffffffffffffffffffffffffffffffffffffff168152602001600382018054611db4906141da565b80601f0160208091040260200160405190810160405280929190818152602001828054611de0906141da565b8015611e2d5780601f10611e0257610100808354040283529160200191611e2d565b820191906000526020600020905b815481529060010190602001808311611e1057829003601f168201915b50505050508152602001600482018054611e46906141da565b80601f0160208091040260200160405190810160405280929190818152602001828054611e72906141da565b8015611ebf5780601f10611e9457610100808354040283529160200191611ebf565b820191906000526020600020905b815481529060010190602001808311611ea257829003601f168201915b5050505050815260200160058201548152602001600682015481526020016007820160009054906101000a900460ff161515151581526020016007820160019054906101000a900460ff161515151581525050838381518110611f2557611f246143d8565b5b60200260200101819052508180611f3b90614407565b9250505b8080611f4a90614407565b915050611cad565b5081945050505050919050565b6003825110158015611f7357506032825111155b611fb2576040517f08c379a0000000000000000000000000000000000000000000000000000000008152600401611fa990614a0c565b60405180910390fd5b600a815110158015611fc6575060c8815111155b612005576040517f08c379a0000000000000000000000000000000000000000000000000000000008152600401611ffc90614a9e565b60405180910390fd5b6002600081548092919061201890614407565b9190505550604051806080016040528060025481526020018381526020018281526020013373ffffffffffffffffffffffffffffffffffffffff1681525060056000600254815260200190815260200160002060008201518160000155602082015181600101908161208a9190614817565b5060408201518160020190816120a09190614817565b5060608201518160030160006101000a81548173ffffffffffffffffffffffffffffffffffffffff021916908373ffffffffffffffffffffffffffffffffffffffff1602179055509050506002547fc4fa4ff02823e9f075c7d98c5ab5d8c8aaae22f0d5949ddac30227ccaf26b26e83833360405161212193929190614abe565b60405180910390a25050565b6005602052806000526040600020600091509050806000015490806001018054612156906141da565b80601f0160208091040260200160405190810160405280929190818152602001828054612182906141da565b80156121cf5780601f106121a4576101008083540402835291602001916121cf565b820191906000526020600020905b8154815290600101906020018083116121b257829003601f168201915b5050505050908060020180546121e4906141da565b80601f0160208091040260200160405190810160405280929190818152602001828054612210906141da565b801561225d5780601f106122325761010080835404028352916020019161225d565b820191906000526020600020905b81548152906001019060200180831161224057829003601f168201915b5050505050908060030160009054906101000a900473ffffffffffffffffffffffffffffffffffffffff16905084565b6122956133f4565b600660008373ffffffffffffffffffffffffffffffffffffffff1673ffffffffffffffffffffffffffffffffffffffff1681526020019081526020016000206040518060400160405290816000820180546122ef906141da565b80601f016020809104026020016040519081016040528092919081815260200182805461231b906141da565b80156123685780601f1061233d57610100808354040283529160200191612368565b820191906000526020600020905b81548152906001019060200180831161234b57829003601f168201915b505050505081526020016001820160009054906101000a900460ff1615151515815250509050919050565b600073ffffffffffffffffffffffffffffffffffffffff166003600083815260200190815260200160002060020160009054906101000a900473ffffffffffffffffffffffffffffffffffffffff1673ffffffffffffffffffffffffffffffffffffffff1603612438576040517f08c379a000000000000000000000000000000000000000000000000000000000815260040161242f90614257565b60405180910390fd5b6003600082815260200190815260200160002060070160009054906101000a900460ff161561249c576040517f08c379a000000000000000000000000000000000000000000000000000000000815260040161249390614573565b60405180910390fd5b6003600082815260200190815260200160002060060160008154809291906124c390614407565b91905055503373ffffffffffffffffffffffffffffffffffffffff16817fdfb8e3561bacb6caea7f0960d425956921b9147a631b6e857325c39911ee7e3b6003600085815260200190815260200160002060060154604051612525919061385f565b60405180910390a350565b6008602052816000526040600020818154811061254c57600080fd5b90600052602060002001600091509150505481565b60025481565b600073ffffffffffffffffffffffffffffffffffffffff166003600084815260200190815260200160002060020160009054906101000a900473ffffffffffffffffffffffffffffffffffffffff1673ffffffffffffffffffffffffffffffffffffffff160361260c576040517f08c379a000000000000000000000000000000000000000000000000000000000815260040161260390614257565b60405180910390fd5b600073ffffffffffffffffffffffffffffffffffffffff1660046000848152602001908152602001600020600083815260200190815260200160002060030160009054906101000a900473ffffffffffffffffffffffffffffffffffffffff1673ffffffffffffffffffffffffffffffffffffffff16036126c2576040517f08c379a00000000000000000000000000000000000000000000000000000000081526004016126b99061449b565b60405180910390fd5b60046000838152602001908152602001600020600082815260200190815260200160002060080160009054906101000a900460ff1615612737576040517f08c379a000000000000000000000000000000000000000000000000000000000815260040161272e90614b4f565b60405180910390fd5b600460008381526020019081526020016000206000828152602001908152602001600020600701600081548092919061276f90614407565b91905055503373ffffffffffffffffffffffffffffffffffffffff1681837f453a2a81d0bb5db7a8249d8acad0a32fa0672ae2bbe791bc72ea9da428b8c012600460008781526020019081526020016000206000868152602001908152602001600020600701546040516127e3919061385f565b60405180910390a45050565b6006602052806000526040600020600091509050806000018054612812906141da565b80601f016020809104026020016040519081016040528092919081815260200182805461283e906141da565b801561288b5780601f106128605761010080835404028352916020019161288b565b820191906000526020600020905b81548152906001019060200180831161286e57829003601f168201915b5050505050908060010160009054906101000a900460ff16905082565b600073ffffffffffffffffffffffffffffffffffffffff166005600084815260200190815260200160002060030160009054906101000a900473ffffffffffffffffffffffffffffffffffffffff1673ffffffffffffffffffffffffffffffffffffffff160361294d576040517f08c379a00000000000000000000000000000000000000000000000000000000081526004016129449061418b565b60405180910390fd5b6000815111801561296157506103e8815111155b6129a0576040517f08c379a000000000000000000000000000000000000000000000000000000000815260040161299790614be1565b60405180910390fd5b600660003373ffffffffffffffffffffffffffffffffffffffff1673ffffffffffffffffffffffffffffffffffffffff16815260200190815260200160002060010160009054906101000a900460ff16612a2f576040517f08c379a0000000000000000000000000000000000000000000000000000000008152600401612a269061464b565b60405180910390fd5b600080815480929190612a4190614407565b919050555060405180610120016040528060005481526020018381526020013373ffffffffffffffffffffffffffffffffffffffff168152602001600660003373ffffffffffffffffffffffffffffffffffffffff1673ffffffffffffffffffffffffffffffffffffffff1681526020019081526020016000206000018054612ac9906141da565b80601f0160208091040260200160405190810160405280929190818152602001828054612af5906141da565b8015612b425780601f10612b1757610100808354040283529160200191612b42565b820191906000526020600020905b815481529060010190602001808311612b2557829003601f168201915b5050505050815260200182815260200142815260200160008152602001600015158152602001600115158152506003600080548152602001908152602001600020600082015181600001556020820151816001015560408201518160020160006101000a81548173ffffffffffffffffffffffffffffffffffffffff021916908373ffffffffffffffffffffffffffffffffffffffff1602179055506060820151816003019081612bf39190614817565b506080820151816004019081612c099190614817565b5060a0820151816005015560c0820151816006015560e08201518160070160006101000a81548160ff0219169083151502179055506101008201518160070160016101000a81548160ff0219169083151502179055509050506008600083815260200190815260200160002060005490806001815401808255809150506001900390600052602060002001600090919091909150553373ffffffffffffffffffffffffffffffffffffffff16826000547f013c77fc90fb7ec58a864c1746a4e71e0e5f6a21537bf68cc90aa35da2f29292600660003373ffffffffffffffffffffffffffffffffffffffff1673ffffffffffffffffffffffffffffffffffffffff1681526020019081526020016000206000018542604051612d2d93929190614c01565b60405180910390a45050565b806003815110158015612d4e57506014815111155b612d8d576040517f08c379a0000000000000000000000000000000000000000000000000000000008152600401612d8490614c92565b60405180910390fd5b600073ffffffffffffffffffffffffffffffffffffffff16600782604051612db59190614cee565b908152602001604051809103902060009054906101000a900473ffffffffffffffffffffffffffffffffffffffff1673ffffffffffffffffffffffffffffffffffffffff161480612e6f57503373ffffffffffffffffffffffffffffffffffffffff16600782604051612e289190614cee565b908152602001604051809103902060009054906101000a900473ffffffffffffffffffffffffffffffffffffffff1673ffffffffffffffffffffffffffffffffffffffff16145b612eae576040517f08c379a0000000000000000000000000000000000000000000000000000000008152600401612ea590614d51565b60405180910390fd5b600660003373ffffffffffffffffffffffffffffffffffffffff1673ffffffffffffffffffffffffffffffffffffffff16815260200190815260200160002060010160009054906101000a900460ff1615613015576000600660003373ffffffffffffffffffffffffffffffffffffffff1673ffffffffffffffffffffffffffffffffffffffff1681526020019081526020016000206000018054612f52906141da565b80601f0160208091040260200160405190810160405280929190818152602001828054612f7e906141da565b8015612fcb5780601f10612fa057610100808354040283529160200191612fcb565b820191906000526020600020905b815481529060010190602001808311612fae57829003601f168201915b50505050509050600781604051612fe29190614cee565b908152602001604051809103902060006101000a81549073ffffffffffffffffffffffffffffffffffffffff0219169055505b604051806040016040528083815260200160011515815250600660003373ffffffffffffffffffffffffffffffffffffffff1673ffffffffffffffffffffffffffffffffffffffff16815260200190815260200160002060008201518160000190816130819190614817565b5060208201518160010160006101000a81548160ff021916908315150217905550905050336007836040516130b69190614cee565b908152602001604051809103902060006101000a81548173ffffffffffffffffffffffffffffffffffffffff021916908373ffffffffffffffffffffffffffffffffffffffff1602179055503373ffffffffffffffffffffffffffffffffffffffff167f74d8e560d2e870c35b35dc882df2a5c96e2bf1cdb5ef6dd2f9cb433c8d048853836040516131489190614d71565b60405180910390a25050565b6004602052816000526040600020602052806000526040600020600091509150508060000154908060010154908060020154908060030160009054906101000a900473ffffffffffffffffffffffffffffffffffffffff16908060040180546131bc906141da565b80601f01602080910402602001604051908101604052809291908181526020018280546131e8906141da565b80156132355780601f1061320a57610100808354040283529160200191613235565b820191906000526020600020905b81548152906001019060200180831161321857829003601f168201915b50505050509080600501805461324a906141da565b80601f0160208091040260200160405190810160405280929190818152602001828054613276906141da565b80156132c35780601f10613298576101008083540402835291602001916132c3565b820191906000526020600020905b8154815290600101906020018083116132a657829003601f168201915b5050505050908060060154908060070154908060080160009054906101000a900460ff16905089565b6040518060800160405280600081526020016060815260200160608152602001600073ffffffffffffffffffffffffffffffffffffffff1681525090565b604051806101200160405280600081526020016000815260200160008152602001600073ffffffffffffffffffffffffffffffffffffffff168152602001606081526020016060815260200160008152602001600081526020016000151581525090565b6040518061012001604052806000815260200160008152602001600073ffffffffffffffffffffffffffffffffffffffff168152602001606081526020016060815260200160008152602001600081526020016000151581526020016000151581525090565b6040518060400160405280606081526020016000151581525090565b6000604051905090565b600080fd5b600080fd5b6000819050919050565b61343781613424565b811461344257600080fd5b50565b6000813590506134548161342e565b92915050565b6000602082840312156134705761346f61341a565b5b600061347e84828501613445565b91505092915050565b61349081613424565b82525050565b600081519050919050565b600082825260208201905092915050565b60005b838110156134d05780820151818401526020810190506134b5565b60008484015250505050565b6000601f19601f8301169050919050565b60006134f882613496565b61350281856134a1565b93506135128185602086016134b2565b61351b816134dc565b840191505092915050565b600073ffffffffffffffffffffffffffffffffffffffff82169050919050565b600061355182613526565b9050919050565b61356181613546565b82525050565b600060808301600083015161357f6000860182613487565b506020830151848203602086015261359782826134ed565b915050604083015184820360408601526135b182826134ed565b91505060608301516135c66060860182613558565b508091505092915050565b600060208201905081810360008301526135eb8184613567565b905092915050565b600081519050919050565b600082825260208201905092915050565b6000819050602082019050919050565b60006080830160008301516136376000860182613487565b506020830151848203602086015261364f82826134ed565b9150506040830151848203604086015261366982826134ed565b915050606083015161367e6060860182613558565b508091505092915050565b6000613695838361361f565b905092915050565b6000602082019050919050565b60006136b5826135f3565b6136bf81856135fe565b9350836020820285016136d18561360f565b8060005b8581101561370d57848403895281516136ee8582613689565b94506136f98361369d565b925060208a019950506001810190506136d5565b50829750879550505050505092915050565b6000602082019050818103600083015261373981846136aa565b905092915050565b61374a81613424565b82525050565b61375981613546565b82525050565b600082825260208201905092915050565b600061377b82613496565b613785818561375f565b93506137958185602086016134b2565b61379e816134dc565b840191505092915050565b60008115159050919050565b6137be816137a9565b82525050565b6000610120820190506137da600083018c613741565b6137e7602083018b613741565b6137f4604083018a613750565b81810360608301526138068189613770565b9050818103608083015261381a8188613770565b905061382960a0830187613741565b61383660c0830186613741565b61384360e08301856137b5565b6138516101008301846137b5565b9a9950505050505050505050565b60006020820190506138746000830184613741565b92915050565b600081519050919050565b600082825260208201905092915050565b6000819050602082019050919050565b6138af816137a9565b82525050565b6000610120830160008301516138ce6000860182613487565b5060208301516138e16020860182613487565b5060408301516138f46040860182613487565b5060608301516139076060860182613558565b506080830151848203608086015261391f82826134ed565b91505060a083015184820360a086015261393982826134ed565b91505060c083015161394e60c0860182613487565b5060e083015161396160e0860182613487565b506101008301516139766101008601826138a6565b508091505092915050565b600061398d83836138b5565b905092915050565b6000602082019050919050565b60006139ad8261387a565b6139b78185613885565b9350836020820285016139c985613896565b8060005b85811015613a0557848403895281516139e68582613981565b94506139f183613995565b925060208a019950506001810190506139cd565b50829750879550505050505092915050565b60006020820190508181036000830152613a3181846139a2565b905092915050565b60008060408385031215613a5057613a4f61341a565b5b6000613a5e85828601613445565b9250506020613a6f85828601613445565b9150509250929050565b600061012083016000830151613a926000860182613487565b506020830151613aa56020860182613487565b506040830151613ab86040860182613558565b5060608301518482036060860152613ad082826134ed565b91505060808301518482036080860152613aea82826134ed565b91505060a0830151613aff60a0860182613487565b5060c0830151613b1260c0860182613487565b5060e0830151613b2560e08601826138a6565b50610100830151613b3a6101008601826138a6565b508091505092915050565b60006020820190508181036000830152613b5f8184613a79565b905092915050565b600080fd5b600080fd5b7f4e487b7100000000000000000000000000000000000000000000000000000000600052604160045260246000fd5b613ba9826134dc565b810181811067ffffffffffffffff82111715613bc857613bc7613b71565b5b80604052505050565b6000613bdb613410565b9050613be78282613ba0565b919050565b600067ffffffffffffffff821115613c0757613c06613b71565b5b613c10826134dc565b9050602081019050919050565b82818337600083830152505050565b6000613c3f613c3a84613bec565b613bd1565b905082815260208101848484011115613c5b57613c5a613b6c565b5b613c66848285613c1d565b509392505050565b600082601f830112613c8357613c82613b67565b5b8135613c93848260208601613c2c565b91505092915050565b60008060408385031215613cb357613cb261341a565b5b6000613cc185828601613445565b925050602083013567ffffffffffffffff811115613ce257613ce161341f565b5b613cee85828601613c6e565b9150509250929050565b600081519050919050565b600082825260208201905092915050565b6000819050602082019050919050565b600061012083016000830151613d3d6000860182613487565b506020830151613d506020860182613487565b506040830151613d636040860182613558565b5060608301518482036060860152613d7b82826134ed565b91505060808301518482036080860152613d9582826134ed565b91505060a0830151613daa60a0860182613487565b5060c0830151613dbd60c0860182613487565b5060e0830151613dd060e08601826138a6565b50610100830151613de56101008601826138a6565b508091505092915050565b6000613dfc8383613d24565b905092915050565b6000602082019050919050565b6000613e1c82613cf8565b613e268185613d03565b935083602082028501613e3885613d14565b8060005b85811015613e745784840389528151613e558582613df0565b9450613e6083613e04565b925060208a01995050600181019050613e3c565b50829750879550505050505092915050565b60006020820190508181036000830152613ea08184613e11565b905092915050565b60008060408385031215613ebf57613ebe61341a565b5b600083013567ffffffffffffffff811115613edd57613edc61341f565b5b613ee985828601613c6e565b925050602083013567ffffffffffffffff811115613f0a57613f0961341f565b5b613f1685828601613c6e565b9150509250929050565b6000608082019050613f356000830187613741565b8181036020830152613f478186613770565b90508181036040830152613f5b8185613770565b9050613f6a6060830184613750565b95945050505050565b613f7c81613546565b8114613f8757600080fd5b50565b600081359050613f9981613f73565b92915050565b600060208284031215613fb557613fb461341a565b5b6000613fc384828501613f8a565b91505092915050565b60006040830160008301518482036000860152613fe982826134ed565b9150506020830151613ffe60208601826138a6565b508091505092915050565b600060208201905081810360008301526140238184613fcc565b905092915050565b600060408201905081810360008301526140458185613770565b905061405460208301846137b5565b9392505050565b6000602082840312156140715761407061341a565b5b600082013567ffffffffffffffff81111561408f5761408e61341f565b5b61409b84828501613c6e565b91505092915050565b6000610120820190506140ba600083018c613741565b6140c7602083018b613741565b6140d4604083018a613741565b6140e16060830189613750565b81810360808301526140f38188613770565b905081810360a08301526141078187613770565b905061411660c0830186613741565b61412360e0830185613741565b6141316101008301846137b5565b9a9950505050505050505050565b7f5375622d636f6d6d756e69747920646f6573206e6f7420657869737400000000600082015250565b6000614175601c8361375f565b91506141808261413f565b602082019050919050565b600060208201905081810360008301526141a481614168565b9050919050565b7f4e487b7100000000000000000000000000000000000000000000000000000000600052602260045260246000fd5b600060028204905060018216806141f257607f821691505b602082108103614205576142046141ab565b5b50919050565b7f506f737420646f6573206e6f7420657869737400000000000000000000000000600082015250565b600061424160138361375f565b915061424c8261420b565b602082019050919050565b6000602082019050818103600083015261427081614234565b9050919050565b7f506f737420616c72656164792064656c65746564000000000000000000000000600082015250565b60006142ad60148361375f565b91506142b882614277565b602082019050919050565b600060208201905081810360008301526142dc816142a0565b9050919050565b7f4f6e6c79207375622d636f6d6d756e6974792063726561746f722063616e207060008201527f6572666f726d207468697320616374696f6e0000000000000000000000000000602082015250565b600061433f60328361375f565b915061434a826142e3565b604082019050919050565b6000602082019050818103600083015261436e81614332565b9050919050565b7f4e487b7100000000000000000000000000000000000000000000000000000000600052601160045260246000fd5b60006143af82613424565b91506143ba83613424565b92508282039050818111156143d2576143d1614375565b5b92915050565b7f4e487b7100000000000000000000000000000000000000000000000000000000600052603260045260246000fd5b600061441282613424565b91507fffffffffffffffffffffffffffffffffffffffffffffffffffffffffffffffff820361444457614443614375565b5b600182019050919050565b7f436f6d6d656e7420646f6573206e6f7420657869737400000000000000000000600082015250565b600061448560168361375f565b91506144908261444f565b602082019050919050565b600060208201905081810360008301526144b481614478565b9050919050565b7f436f6d6d656e7420616c72656164792064656c65746564000000000000000000600082015250565b60006144f160178361375f565b91506144fc826144bb565b602082019050919050565b60006020820190508181036000830152614520816144e4565b9050919050565b7f506f73742069732064656c657465640000000000000000000000000000000000600082015250565b600061455d600f8361375f565b915061456882614527565b602082019050919050565b6000602082019050818103600083015261458c81614550565b9050919050565b7f436f6e74656e74206d75737420626520312d3530302063686172616374657273600082015250565b60006145c960208361375f565b91506145d482614593565b602082019050919050565b600060208201905081810360008301526145f8816145bc565b9050919050565b7f55736572206d75737420736574206120757365726e616d650000000000000000600082015250565b600061463560188361375f565b9150614640826145ff565b602082019050919050565b6000602082019050818103600083015261466481614628565b9050919050565b60008190508160005260206000209050919050565b60006020601f8301049050919050565b600082821b905092915050565b6000600883026146cd7fffffffffffffffffffffffffffffffffffffffffffffffffffffffffffffffff82614690565b6146d78683614690565b95508019841693508086168417925050509392505050565b6000819050919050565b600061471461470f61470a84613424565b6146ef565b613424565b9050919050565b6000819050919050565b61472e836146f9565b61474261473a8261471b565b84845461469d565b825550505050565b600090565b61475761474a565b614762818484614725565b505050565b5b818110156147865761477b60008261474f565b600181019050614768565b5050565b601f8211156147cb5761479c8161466b565b6147a584614680565b810160208510156147b4578190505b6147c86147c085614680565b830182614767565b50505b505050565b600082821c905092915050565b60006147ee600019846008026147d0565b1980831691505092915050565b600061480783836147dd565b9150826002028217905092915050565b61482082613496565b67ffffffffffffffff81111561483957614838613b71565b5b61484382546141da565b61484e82828561478a565b600060209050601f831160018114614881576000841561486f578287015190505b61487985826147fb565b8655506148e1565b601f19841661488f8661466b565b60005b828110156148b757848901518255600182019150602085019450602081019050614892565b868310156148d457848901516148d0601f8916826147dd565b8355505b6001600288020188555050505b505050505050565b600081546148f6816141da565b614900818661375f565b9450600182166000811461491b576001811461493157614964565b60ff198316865281151560200286019350614964565b61493a8561466b565b60005b8381101561495c5781548189015260018201915060208101905061493d565b808801955050505b50505092915050565b60006080820190506149826000830187613750565b818103602083015261499481866148e9565b905081810360408301526149a88185613770565b90506149b76060830184613741565b95945050505050565b7f4e616d65206d75737420626520332d3530206368617261637465727300000000600082015250565b60006149f6601c8361375f565b9150614a01826149c0565b602082019050919050565b60006020820190508181036000830152614a25816149e9565b9050919050565b7f4465736372697074696f6e206d7573742062652031302d32303020636861726160008201527f6374657273000000000000000000000000000000000000000000000000000000602082015250565b6000614a8860258361375f565b9150614a9382614a2c565b604082019050919050565b60006020820190508181036000830152614ab781614a7b565b9050919050565b60006060820190508181036000830152614ad88186613770565b90508181036020830152614aec8185613770565b9050614afb6040830184613750565b949350505050565b7f436f6d6d656e742069732064656c657465640000000000000000000000000000600082015250565b6000614b3960128361375f565b9150614b4482614b03565b602082019050919050565b60006020820190508181036000830152614b6881614b2c565b9050919050565b7f436f6e74656e74206d75737420626520312d313030302063686172616374657260008201527f7300000000000000000000000000000000000000000000000000000000000000602082015250565b6000614bcb60218361375f565b9150614bd682614b6f565b604082019050919050565b60006020820190508181036000830152614bfa81614bbe565b9050919050565b60006060820190508181036000830152614c1b81866148e9565b90508181036020830152614c2f8185613770565b9050614c3e6040830184613741565b949350505050565b7f557365726e616d65206d75737420626520332d32302063686172616374657273600082015250565b6000614c7c60208361375f565b9150614c8782614c46565b602082019050919050565b60006020820190508181036000830152614cab81614c6f565b9050919050565b600081905092915050565b6000614cc882613496565b614cd28185614cb2565b9350614ce28185602086016134b2565b80840191505092915050565b6000614cfa8284614cbd565b915081905092915050565b7f557365726e616d6520616c72656164792074616b656e00000000000000000000600082015250565b6000614d3b60168361375f565b9150614d4682614d05565b602082019050919050565b60006020820190508181036000830152614d6a81614d2e565b9050919050565b60006020820190508181036000830152614d8b8184613770565b90509291505056fea264697066735822122015562561cdebcbe1c1b5004e3083e9b2f04535cd5320a114c19ec13842ac301464736f6c63430008140033",
  "linkReferences": {},
  "deployedLinkReferences": {}
}