{
  "_format": "hh-sol-artifact-1",
  "contractName": "MirrorPost",
  "sourceName": "contracts/MirrorPost.sol",
  "abi": [
    {
      "anonymous": false,
      "inputs": [
        {
          "indexed": true,
          "internalType": "uint256",
          "name": "commentId",
          "type": "uint256"
        },
        {
          "indexed": true,
          "internalType": "uint256",
          "name": "postId",
          "type": "uint256"
        },
        {
          "indexed": true,
          "internalType": "uint256",
          "name": "subCommunityId",
          "type": "uint256"
        },
        {
          "indexed": false,
          "internalType": "address",
          "name": "author",
          "type": "address"
        },
        {
          "indexed": false,
          "internalType": "string",
          "name": "username",
          "type": "string"
        },
        {
          "indexed": false,
          "internalType": "string",
          "name": "content",
          "type": "string"
        },
        {
          "indexed": false,
          "internalType": "uint256",
          "name": "timestamp",
          "type": "uint256"
        }
      ],
      "name": "CommentCreated",
      "type": "event"
    },
    {
      "anonymous": false,
      "inputs": [
        {
          "indexed": true,
          "internalType": "uint256",
          "name": "postId",
          "type": "uint256"
        },
        {
          "indexed": true,
          "internalType": "uint256",
          "name": "commentId",
          "type": "uint256"
        },
        {
          "indexed": true,
          "internalType": "address",
          "name": "moderator",
          "type": "address"
        }
      ],
      "name": "CommentDeleted",
      "type": "event"
    },
    {
      "anonymous": false,
      "inputs": [
        {
          "indexed": true,
          "internalType": "uint256",
          "name": "postId",
          "type": "uint256"
        },
        {
          "indexed": true,
          "internalType": "uint256",
          "name": "commentId",
          "type": "uint256"
        },
        {
          "indexed": true,
          "internalType": "address",
          "name": "liker",
          "type": "address"
        },
        {
          "indexed": false,
          "internalType": "uint256",
          "name": "likes",
          "type": "uint256"
        }
      ],
      "name": "CommentLiked",
      "type": "event"
    },
    {
      "anonymous": false,
      "inputs": [
        {
          "indexed": true,
          "internalType": "uint256",
          "name": "postId",
          "type": "uint256"
        },
        {
          "indexed": true,
          "internalType": "uint256",
          "name": "subCommunityId",
          "type": "uint256"
        },
        {
          "indexed": true,
          "internalType": "address",
          "name": "author",
          "type": "address"
        },
        {
          "indexed": false,
          "internalType": "string",
          "name": "username",
          "type": "string"
        },
        {
          "indexed": false,
          "internalType": "string",
          "name": "content",
          "type": "string"
        },
        {
          "indexed": false,
          "internalType": "uint256",
          "name": "timestamp",
          "type": "uint256"
        }
      ],
      "name": "PostCreated",
      "type": "event"
    },
    {
      "anonymous": false,
      "inputs": [
        {
          "indexed": true,
          "internalType": "uint256",
          "name": "postId",
          "type": "uint256"
        },
        {
          "indexed": true,
          "internalType": "address",
          "name": "moderator",
          "type": "address"
        }
      ],
      "name": "PostDeleted",
      "type": "event"
    },
    {
      "anonymous": false,
      "inputs": [
        {
          "indexed": true,
          "internalType": "uint256",
          "name": "postId",
          "type": "uint256"
        },
        {
          "indexed": true,
          "internalType": "address",
          "name": "liker",
          "type": "address"
        },
        {
          "indexed": false,
          "internalType": "uint256",
          "name": "likes",
          "type": "uint256"
        }
      ],
      "name": "PostLiked",
      "type": "event"
    },
    {
      "anonymous": false,
      "inputs": [
        {
          "indexed": true,
          "internalType": "uint256",
          "name": "subCommunityId",
          "type": "uint256"
        },
        {
          "indexed": false,
          "internalType": "string",
          "name": "name",
          "type": "string"
        },
        {
          "indexed": false,
          "internalType": "string",
          "name": "description",
          "type": "string"
        },
        {
          "indexed": false,
          "internalType": "address",
          "name": "creator",
          "type": "address"
        }
      ],
      "name": "SubCommunityCreated",
      "type": "event"
    },
    {
      "anonymous": false,
      "inputs": [
        {
          "indexed": true,
          "internalType": "address",
          "name": "user",
          "type": "address"
        },
        {
          "indexed": false,
          "internalType": "string",
          "name": "username",
          "type": "string"
        }
      ],
      "name": "UsernameSet",
      "type": "event"
    },
    {
      "inputs": [],
      "name": "commentCount",
      "outputs": [
        {
          "internalType": "uint256",
          "name": "",
          "type": "uint256"
        }
      ],
      "stateMutability": "view",
      "type": "function"
    },
    {
      "inputs": [
        {
          "internalType": "uint256",
          "name": "",
          "type": "uint256"
        },
        {
          "internalType": "uint256",
          "name": "",
          "type": "uint256"
        }
      ],
      "name": "comments",
      "outputs": [
        {
          "internalType": "uint256",
          "name": "commentId",
          "type": "uint256"
        },
        {
          "internalType": "uint256",
          "name": "postId",
          "type": "uint256"
        },
        {
          "internalType": "uint256",
          "name": "subCommunityId",
          "type": "uint256"
        },
        {
          "internalType": "address",
          "name": "author",
          "type": "address"
        },
        {
          "internalType": "string",
          "name": "username",
          "type": "string"
        },
        {
          "internalType": "string",
          "name": "content",
          "type": "string"
        },
        {
          "internalType": "uint256",
          "name": "timestamp",
          "type": "uint256"
        },
        {
          "internalType": "uint256",
          "name": "likes",
          "type": "uint256"
        },
        {
          "internalType": "bool",
          "name": "isDeleted",
          "type": "bool"
        }
      ],
      "stateMutability": "view",
      "type": "function"
    },
    {
      "inputs": [
        {
          "internalType": "uint256",
          "name": "postId",
          "type": "uint256"
        },
        {
          "internalType": "string",
          "name": "content",
          "type": "string"
        }
      ],
      "name": "createComment",
      "outputs": [],
      "stateMutability": "nonpayable",
      "type": "function"
    },
    {
      "inputs": [
        {
          "internalType": "uint256",
          "name": "subCommunityId",
          "type": "uint256"
        },
        {
          "internalType": "string",
          "name": "content",
          "type": "string"
        }
      ],
      "name": "createPost",
      "outputs": [],
      "stateMutability": "nonpayable",
      "type": "function"
    },
    {
      "inputs": [
        {
          "internalType": "string",
          "name": "name",
          "type": "string"
        },
        {
          "internalType": "string",
          "name": "description",
          "type": "string"
        }
      ],
      "name": "createSubCommunity",
      "outputs": [],
      "stateMutability": "nonpayable",
      "type": "function"
    },
    {
      "inputs": [
        {
          "internalType": "uint256",
          "name": "postId",
          "type": "uint256"
        },
        {
          "internalType": "uint256",
          "name": "commentId",
          "type": "uint256"
        }
      ],
      "name": "deleteComment",
      "outputs": [],
      "stateMutability": "nonpayable",
      "type": "function"
    },
    {
      "inputs": [
        {
          "internalType": "uint256",
          "name": "postId",
          "type": "uint256"
        }
      ],
      "name": "deletePost",
      "outputs": [],
      "stateMutability": "nonpayable",
      "type": "function"
    },
    {
      "inputs": [],
      "name": "getAllSubCommunities",
      "outputs": [
        {
          "components": [
            {
              "internalType": "uint256",
              "name": "subCommunityId",
              "type": "uint256"
            },
            {
              "internalType": "string",
              "name": "name",
              "type": "string"
            },
            {
              "internalType": "string",
              "name": "description",
              "type": "string"
            },
            {
              "internalType": "address",
              "name": "creator",
              "type": "address"
            }
          ],
          "internalType": "struct MirrorPost.SubCommunity[]",
          "name": "",
          "type": "tuple[]"
        }
      ],
      "stateMutability": "view",
      "type": "function"
    },
    {
      "inputs": [
        {
          "internalType": "uint256",
          "name": "postId",
          "type": "uint256"
        }
      ],
      "name": "getComments",
      "outputs": [
        {
          "components": [
            {
              "internalType": "uint256",
              "name": "commentId",
              "type": "uint256"
            },
            {
              "internalType": "uint256",
              "name": "postId",
              "type": "uint256"
            },
            {
              "internalType": "uint256",
              "name": "subCommunityId",
              "type": "uint256"
            },
            {
              "internalType": "address",
              "name": "author",
              "type": "address"
            },
            {
              "internalType": "string",
              "name": "username",
              "type": "string"
            },
            {
              "internalType": "string",
              "name": "content",
              "type": "string"
            },
            {
              "internalType": "uint256",
              "name": "timestamp",
              "type": "uint256"
            },
            {
              "internalType": "uint256",
              "name": "likes",
              "type": "uint256"
            },
            {
              "internalType": "bool",
              "name": "isDeleted",
              "type": "bool"
            }
          ],
          "internalType": "struct MirrorPost.Comment[]",
          "name": "",
          "type": "tuple[]"
        }
      ],
      "stateMutability": "view",
      "type": "function"
    },
    {
      "inputs": [
        {
          "internalType": "uint256",
          "name": "postId",
          "type": "uint256"
        }
      ],
      "name": "getPost",
      "outputs": [
        {
          "components": [
            {
              "internalType": "uint256",
              "name": "postId",
              "type": "uint256"
            },
            {
              "internalType": "uint256",
              "name": "subCommunityId",
              "type": "uint256"
            },
            {
              "internalType": "address",
              "name": "author",
              "type": "address"
            },
            {
              "internalType": "string",
              "name": "username",
              "type": "string"
            },
            {
              "internalType": "string",
              "name": "content",
              "type": "string"
            },
            {
              "internalType": "uint256",
              "name": "timestamp",
              "type": "uint256"
            },
            {
              "internalType": "uint256",
              "name": "likes",
              "type": "uint256"
            },
            {
              "internalType": "bool",
              "name": "isDeleted",
              "type": "bool"
            }
          ],
          "internalType": "struct MirrorPost.Post",
          "name": "",
          "type": "tuple"
        }
      ],
      "stateMutability": "view",
      "type": "function"
    },
    {
      "inputs": [
        {
          "internalType": "uint256",
          "name": "subCommunityId",
          "type": "uint256"
        }
      ],
      "name": "getPostsInSubCommunity",
      "outputs": [
        {
          "components": [
            {
              "internalType": "uint256",
              "name": "postId",
              "type": "uint256"
            },
            {
              "internalType": "uint256",
              "name": "subCommunityId",
              "type": "uint256"
            },
            {
              "internalType": "address",
              "name": "author",
              "type": "address"
            },
            {
              "internalType": "string",
              "name": "username",
              "type": "string"
            },
            {
              "internalType": "string",
              "name": "content",
              "type": "string"
            },
            {
              "internalType": "uint256",
              "name": "timestamp",
              "type": "uint256"
            },
            {
              "internalType": "uint256",
              "name": "likes",
              "type": "uint256"
            },
            {
              "internalType": "bool",
              "name": "isDeleted",
              "type": "bool"
            }
          ],
          "internalType": "struct MirrorPost.Post[]",
          "name": "",
          "type": "tuple[]"
        }
      ],
      "stateMutability": "view",
      "type": "function"
    },
    {
      "inputs": [
        {
          "internalType": "uint256",
          "name": "subCommunityId",
          "type": "uint256"
        }
      ],
      "name": "getSubCommunity",
      "outputs": [
        {
          "components": [
            {
              "internalType": "uint256",
              "name": "subCommunityId",
              "type": "uint256"
            },
            {
              "internalType": "string",
              "name": "name",
              "type": "string"
            },
            {
              "internalType": "string",
              "name": "description",
              "type": "string"
            },
            {
              "internalType": "address",
              "name": "creator",
              "type": "address"
            }
          ],
          "internalType": "struct MirrorPost.SubCommunity",
          "name": "",
          "type": "tuple"
        }
      ],
      "stateMutability": "view",
      "type": "function"
    },
    {
      "inputs": [
        {
          "internalType": "address",
          "name": "user",
          "type": "address"
        }
      ],
      "name": "getUser",
      "outputs": [
        {
          "components": [
            {
              "internalType": "string",
              "name": "username",
              "type": "string"
            },
            {
              "internalType": "bool",
              "name": "exists",
              "type": "bool"
            }
          ],
          "internalType": "struct MirrorPost.User",
          "name": "",
          "type": "tuple"
        }
      ],
      "stateMutability": "view",
      "type": "function"
    },
    {
      "inputs": [
        {
          "internalType": "uint256",
          "name": "postId",
          "type": "uint256"
        },
        {
          "internalType": "uint256",
          "name": "commentId",
          "type": "uint256"
        }
      ],
      "name": "likeComment",
      "outputs": [],
      "stateMutability": "nonpayable",
      "type": "function"
    },
    {
      "inputs": [
        {
          "internalType": "uint256",
          "name": "postId",
          "type": "uint256"
        }
      ],
      "name": "likePost",
      "outputs": [],
      "stateMutability": "nonpayable",
      "type": "function"
    },
    {
      "inputs": [],
      "name": "postCount",
      "outputs": [
        {
          "internalType": "uint256",
          "name": "",
          "type": "uint256"
        }
      ],
      "stateMutability": "view",
      "type": "function"
    },
    {
      "inputs": [
        {
          "internalType": "uint256",
          "name": "",
          "type": "uint256"
        }
      ],
      "name": "posts",
      "outputs": [
        {
          "internalType": "uint256",
          "name": "postId",
          "type": "uint256"
        },
        {
          "internalType": "uint256",
          "name": "subCommunityId",
          "type": "uint256"
        },
        {
          "internalType": "address",
          "name": "author",
          "type": "address"
        },
        {
          "internalType": "string",
          "name": "username",
          "type": "string"
        },
        {
          "internalType": "string",
          "name": "content",
          "type": "string"
        },
        {
          "internalType": "uint256",
          "name": "timestamp",
          "type": "uint256"
        },
        {
          "internalType": "uint256",
          "name": "likes",
          "type": "uint256"
        },
        {
          "internalType": "bool",
          "name": "isDeleted",
          "type": "bool"
        }
      ],
      "stateMutability": "view",
      "type": "function"
    },
    {
      "inputs": [
        {
          "internalType": "string",
          "name": "username",
          "type": "string"
        }
      ],
      "name": "setUsername",
      "outputs": [],
      "stateMutability": "nonpayable",
      "type": "function"
    },
    {
      "inputs": [
        {
          "internalType": "uint256",
          "name": "",
          "type": "uint256"
        }
      ],
      "name": "subCommunities",
      "outputs": [
        {
          "internalType": "uint256",
          "name": "subCommunityId",
          "type": "uint256"
        },
        {
          "internalType": "string",
          "name": "name",
          "type": "string"
        },
        {
          "internalType": "string",
          "name": "description",
          "type": "string"
        },
        {
          "internalType": "address",
          "name": "creator",
          "type": "address"
        }
      ],
      "stateMutability": "view",
      "type": "function"
    },
    {
      "inputs": [],
      "name": "subCommunityCount",
      "outputs": [
        {
          "internalType": "uint256",
          "name": "",
          "type": "uint256"
        }
      ],
      "stateMutability": "view",
      "type": "function"
    },
    {
      "inputs": [
        {
          "internalType": "address",
          "name": "",
          "type": "address"
        }
      ],
      "name": "users",
      "outputs": [
        {
          "internalType": "string",
          "name": "username",
          "type": "string"
        },
        {
          "internalType": "bool",
          "name": "exists",
          "type": "bool"
        }
      ],
      "stateMutability": "view",
      "type": "function"
    }
  ],
  "bytecode": "0x608060405234801561001057600080fd5b50614b00806100206000396000f3fe608060405234801561001057600080fd5b50600436106101365760003560e01c806351b19ded116100b85780638e22f2331161007c5780638e22f2331461037b578063a0e9182114610399578063a87430ba146103b5578063a9ca3a4c146103e6578063ed59313a14610402578063fc6c776f1461041e57610136565b806351b19ded146102b05780635da3d936146102e0578063632562a2146102fc5780636f77926b1461032f578063725009d31461035f57610136565b806323edf697116100ff57806323edf697146101fa57806331a4bcb51461022a57806340731c241461024657806340a179851461027657806345ff20de1461029257610136565b806204e4761461013b578063094cd5ee1461016b5780630a193703146101875780630b1e7f83146101a557806317906c2e146101dc575b600080fd5b61015560048036038101906101509190613236565b610456565b60405161016291906133ad565b60405180910390f35b61018560048036038101906101809190613236565b6106ac565b005b61018f6108e7565b60405161019c91906134fb565b60405180910390f35b6101bf60048036038101906101ba9190613236565b610b3a565b6040516101d39897969594939291906135a0565b60405180910390f35b6101e4610cbf565b6040516101f1919061362c565b60405180910390f35b610214600480360381019061020f9190613236565b610cc5565b60405161022191906137e4565b60405180910390f35b610244600480360381019061023f9190613806565b611126565b005b610260600480360381019061025b9190613236565b611396565b60405161026d91906138fd565b60405180910390f35b610290600480360381019061028b9190613a54565b611626565b005b61029a611a62565b6040516102a7919061362c565b60405180910390f35b6102ca60048036038101906102c59190613236565b611a68565b6040516102d79190613c29565b60405180910390f35b6102fa60048036038101906102f59190613c4b565b611e6a565b005b61031660048036038101906103119190613236565b612038565b6040516103269493929190613cc3565b60405180910390f35b61034960048036038101906103449190613d42565b612198565b6040516103569190613dac565b60405180910390f35b61037960048036038101906103749190613236565b61229e565b005b61038361243b565b604051610390919061362c565b60405180910390f35b6103b360048036038101906103ae9190613806565b612441565b005b6103cf60048036038101906103ca9190613d42565b6126c9565b6040516103dd929190613dce565b60405180910390f35b61040060048036038101906103fb9190613a54565b612782565b005b61041c60048036038101906104179190613dfe565b612b1e565b005b61043860048036038101906104339190613806565b612f39565b60405161044d99989796959493929190613e47565b60405180910390f35b61045e6130d1565b600073ffffffffffffffffffffffffffffffffffffffff166005600084815260200190815260200160002060030160009054906101000a900473ffffffffffffffffffffffffffffffffffffffff1673ffffffffffffffffffffffffffffffffffffffff1603610503576040517f08c379a00000000000000000000000000000000000000000000000000000000081526004016104fa90613f2e565b60405180910390fd5b600560008381526020019081526020016000206040518060800160405290816000820154815260200160018201805461053b90613f7d565b80601f016020809104026020016040519081016040528092919081815260200182805461056790613f7d565b80156105b45780601f10610589576101008083540402835291602001916105b4565b820191906000526020600020905b81548152906001019060200180831161059757829003601f168201915b505050505081526020016002820180546105cd90613f7d565b80601f01602080910402602001604051908101604052809291908181526020018280546105f990613f7d565b80156106465780601f1061061b57610100808354040283529160200191610646565b820191906000526020600020905b81548152906001019060200180831161062957829003601f168201915b505050505081526020016003820160009054906101000a900473ffffffffffffffffffffffffffffffffffffffff1673ffffffffffffffffffffffffffffffffffffffff1673ffffffffffffffffffffffffffffffffffffffff16815250509050919050565b60036000828152602001908152602001600020600101543373ffffffffffffffffffffffffffffffffffffffff166005600083815260200190815260200160002060030160009054906101000a900473ffffffffffffffffffffffffffffffffffffffff1673ffffffffffffffffffffffffffffffffffffffff1614610767576040517f08c379a000000000000000000000000000000000000000000000000000000000815260040161075e90614020565b60405180910390fd5b600073ffffffffffffffffffffffffffffffffffffffff166003600084815260200190815260200160002060020160009054906101000a900473ffffffffffffffffffffffffffffffffffffffff1673ffffffffffffffffffffffffffffffffffffffff160361080c576040517f08c379a00000000000000000000000000000000000000000000000000000000081526004016108039061408c565b60405180910390fd5b6003600083815260200190815260200160002060070160009054906101000a900460ff1615610870576040517f08c379a0000000000000000000000000000000000000000000000000000000008152600401610867906140f8565b60405180910390fd5b60016003600084815260200190815260200160002060070160006101000a81548160ff0219169083151502179055503373ffffffffffffffffffffffffffffffffffffffff16827f1da4a15b15417b54b8b3bea2ca87cfc4c94f0fee7d86702d0dab9e2906e7a7d360405160405180910390a35050565b6060600060025467ffffffffffffffff81111561090757610906613929565b5b60405190808252806020026020018201604052801561094057816020015b61092d6130d1565b8152602001906001900390816109255790505b5090506000600190505b6002548111610b3257600560008281526020019081526020016000206040518060800160405290816000820154815260200160018201805461098b90613f7d565b80601f01602080910402602001604051908101604052809291908181526020018280546109b790613f7d565b8015610a045780601f106109d957610100808354040283529160200191610a04565b820191906000526020600020905b8154815290600101906020018083116109e757829003601f168201915b50505050508152602001600282018054610a1d90613f7d565b80601f0160208091040260200160405190810160405280929190818152602001828054610a4990613f7d565b8015610a965780601f10610a6b57610100808354040283529160200191610a96565b820191906000526020600020905b815481529060010190602001808311610a7957829003601f168201915b505050505081526020016003820160009054906101000a900473ffffffffffffffffffffffffffffffffffffffff1673ffffffffffffffffffffffffffffffffffffffff1673ffffffffffffffffffffffffffffffffffffffff168152505082600183610b039190614147565b81518110610b1457610b1361417b565b5b60200260200101819052508080610b2a906141aa565b91505061094a565b508091505090565b60036020528060005260406000206000915090508060000154908060010154908060020160009054906101000a900473ffffffffffffffffffffffffffffffffffffffff1690806003018054610b8f90613f7d565b80601f0160208091040260200160405190810160405280929190818152602001828054610bbb90613f7d565b8015610c085780601f10610bdd57610100808354040283529160200191610c08565b820191906000526020600020905b815481529060010190602001808311610beb57829003601f168201915b505050505090806004018054610c1d90613f7d565b80601f0160208091040260200160405190810160405280929190818152602001828054610c4990613f7d565b8015610c965780601f10610c6b57610100808354040283529160200191610c96565b820191906000526020600020905b815481529060010190602001808311610c7957829003601f168201915b5050505050908060050154908060060154908060070160009054906101000a900460ff16905088565b60005481565b6060600073ffffffffffffffffffffffffffffffffffffffff166003600084815260200190815260200160002060020160009054906101000a900473ffffffffffffffffffffffffffffffffffffffff1673ffffffffffffffffffffffffffffffffffffffff1603610d6c576040517f08c379a0000000000000000000000000000000000000000000000000000000008152600401610d639061408c565b60405180910390fd5b600080600190505b6001548111610e0c578360046000868152602001908152602001600020600083815260200190815260200160002060010154148015610de5575060046000858152602001908152602001600020600082815260200190815260200160002060080160009054906101000a900460ff16155b15610df9578180610df5906141aa565b9250505b8080610e04906141aa565b915050610d74565b5060008167ffffffffffffffff811115610e2957610e28613929565b5b604051908082528060200260200182016040528015610e6257816020015b610e4f61310f565b815260200190600190039081610e475790505b509050600080600190505b600154811161111a578560046000888152602001908152602001600020600083815260200190815260200160002060010154148015610ede575060046000878152602001908152602001600020600082815260200190815260200160002060080160009054906101000a900460ff16155b1561110757600460008781526020019081526020016000206000828152602001908152602001600020604051806101200160405290816000820154815260200160018201548152602001600282015481526020016003820160009054906101000a900473ffffffffffffffffffffffffffffffffffffffff1673ffffffffffffffffffffffffffffffffffffffff1673ffffffffffffffffffffffffffffffffffffffff168152602001600482018054610f9790613f7d565b80601f0160208091040260200160405190810160405280929190818152602001828054610fc390613f7d565b80156110105780601f10610fe557610100808354040283529160200191611010565b820191906000526020600020905b815481529060010190602001808311610ff357829003601f168201915b5050505050815260200160058201805461102990613f7d565b80601f016020809104026020016040519081016040528092919081815260200182805461105590613f7d565b80156110a25780601f10611077576101008083540402835291602001916110a2565b820191906000526020600020905b81548152906001019060200180831161108557829003601f168201915b5050505050815260200160068201548152602001600782015481526020016008820160009054906101000a900460ff1615151515815250508383815181106110ed576110ec61417b565b5b60200260200101819052508180611103906141aa565b9250505b8080611112906141aa565b915050610e6d565b50819350505050919050565b60036000838152602001908152602001600020600101543373ffffffffffffffffffffffffffffffffffffffff166005600083815260200190815260200160002060030160009054906101000a900473ffffffffffffffffffffffffffffffffffffffff1673ffffffffffffffffffffffffffffffffffffffff16146111e1576040517f08c379a00000000000000000000000000000000000000000000000000000000081526004016111d890614020565b60405180910390fd5b600073ffffffffffffffffffffffffffffffffffffffff1660046000858152602001908152602001600020600084815260200190815260200160002060030160009054906101000a900473ffffffffffffffffffffffffffffffffffffffff1673ffffffffffffffffffffffffffffffffffffffff1603611297576040517f08c379a000000000000000000000000000000000000000000000000000000000815260040161128e9061423e565b60405180910390fd5b60046000848152602001908152602001600020600083815260200190815260200160002060080160009054906101000a900460ff161561130c576040517f08c379a0000000000000000000000000000000000000000000000000000000008152600401611303906142aa565b60405180910390fd5b600160046000858152602001908152602001600020600084815260200190815260200160002060080160006101000a81548160ff0219169083151502179055503373ffffffffffffffffffffffffffffffffffffffff1682847f6ee692db105027f6f2626ec7348b1fee62bdd8b6aa9c2999ceed2aebd4dc3ee960405160405180910390a4505050565b61139e613173565b600073ffffffffffffffffffffffffffffffffffffffff166003600084815260200190815260200160002060020160009054906101000a900473ffffffffffffffffffffffffffffffffffffffff1673ffffffffffffffffffffffffffffffffffffffff1603611443576040517f08c379a000000000000000000000000000000000000000000000000000000000815260040161143a9061408c565b60405180910390fd5b600360008381526020019081526020016000206040518061010001604052908160008201548152602001600182015481526020016002820160009054906101000a900473ffffffffffffffffffffffffffffffffffffffff1673ffffffffffffffffffffffffffffffffffffffff1673ffffffffffffffffffffffffffffffffffffffff1681526020016003820180546114dc90613f7d565b80601f016020809104026020016040519081016040528092919081815260200182805461150890613f7d565b80156115555780601f1061152a57610100808354040283529160200191611555565b820191906000526020600020905b81548152906001019060200180831161153857829003601f168201915b5050505050815260200160048201805461156e90613f7d565b80601f016020809104026020016040519081016040528092919081815260200182805461159a90613f7d565b80156115e75780601f106115bc576101008083540402835291602001916115e7565b820191906000526020600020905b8154815290600101906020018083116115ca57829003601f168201915b5050505050815260200160058201548152602001600682015481526020016007820160009054906101000a900460ff1615151515815250509050919050565b600073ffffffffffffffffffffffffffffffffffffffff166003600084815260200190815260200160002060020160009054906101000a900473ffffffffffffffffffffffffffffffffffffffff1673ffffffffffffffffffffffffffffffffffffffff16036116cb576040517f08c379a00000000000000000000000000000000000000000000000000000000081526004016116c29061408c565b60405180910390fd5b6003600083815260200190815260200160002060070160009054906101000a900460ff161561172f576040517f08c379a000000000000000000000000000000000000000000000000000000000815260040161172690614316565b60405180910390fd5b6000815111801561174357506101f4815111155b611782576040517f08c379a000000000000000000000000000000000000000000000000000000000815260040161177990614382565b60405180910390fd5b60016000815480929190611795906141aa565b91905055506040518061012001604052806001548152602001838152602001600360008581526020019081526020016000206001015481526020013373ffffffffffffffffffffffffffffffffffffffff168152602001600660003373ffffffffffffffffffffffffffffffffffffffff1673ffffffffffffffffffffffffffffffffffffffff168152602001908152602001600020600001805461183990613f7d565b80601f016020809104026020016040519081016040528092919081815260200182805461186590613f7d565b80156118b25780601f10611887576101008083540402835291602001916118b2565b820191906000526020600020905b81548152906001019060200180831161189557829003601f168201915b505050505081526020018281526020014281526020016000815260200160001515815250600460008481526020019081526020016000206000600154815260200190815260200160002060008201518160000155602082015181600101556040820151816002015560608201518160030160006101000a81548173ffffffffffffffffffffffffffffffffffffffff021916908373ffffffffffffffffffffffffffffffffffffffff1602179055506080820151816004019081611976919061454e565b5060a082015181600501908161198c919061454e565b5060c0820151816006015560e082015181600701556101008201518160080160006101000a81548160ff0219169083151502179055509050506003600083815260200190815260200160002060010154826001547f380c62bd2213166aa88c970b4d41f72d0ff0c5709b48ff55280cd428b5bc028533600660003373ffffffffffffffffffffffffffffffffffffffff1673ffffffffffffffffffffffffffffffffffffffff1681526020019081526020016000206000018642604051611a5694939291906146a4565b60405180910390a45050565b60015481565b6060600073ffffffffffffffffffffffffffffffffffffffff166005600084815260200190815260200160002060030160009054906101000a900473ffffffffffffffffffffffffffffffffffffffff1673ffffffffffffffffffffffffffffffffffffffff1603611b0f576040517f08c379a0000000000000000000000000000000000000000000000000000000008152600401611b0690613f2e565b60405180910390fd5b600080600190505b6000548111611b8d57836003600083815260200190815260200160002060010154148015611b6657506003600082815260200190815260200160002060070160009054906101000a900460ff16155b15611b7a578180611b76906141aa565b9250505b8080611b85906141aa565b915050611b17565b5060008167ffffffffffffffff811115611baa57611ba9613929565b5b604051908082528060200260200182016040528015611be357816020015b611bd0613173565b815260200190600190039081611bc85790505b509050600080600190505b6000548111611e5e57856003600083815260200190815260200160002060010154148015611c3d57506003600082815260200190815260200160002060070160009054906101000a900460ff16155b15611e4b57600360008281526020019081526020016000206040518061010001604052908160008201548152602001600182015481526020016002820160009054906101000a900473ffffffffffffffffffffffffffffffffffffffff1673ffffffffffffffffffffffffffffffffffffffff1673ffffffffffffffffffffffffffffffffffffffff168152602001600382018054611cdb90613f7d565b80601f0160208091040260200160405190810160405280929190818152602001828054611d0790613f7d565b8015611d545780601f10611d2957610100808354040283529160200191611d54565b820191906000526020600020905b815481529060010190602001808311611d3757829003601f168201915b50505050508152602001600482018054611d6d90613f7d565b80601f0160208091040260200160405190810160405280929190818152602001828054611d9990613f7d565b8015611de65780601f10611dbb57610100808354040283529160200191611de6565b820191906000526020600020905b815481529060010190602001808311611dc957829003601f168201915b5050505050815260200160058201548152602001600682015481526020016007820160009054906101000a900460ff161515151581525050838381518110611e3157611e3061417b565b5b60200260200101819052508180611e47906141aa565b9250505b8080611e56906141aa565b915050611bee565b50819350505050919050565b6003825110158015611e7e57506032825111155b611ebd576040517f08c379a0000000000000000000000000000000000000000000000000000000008152600401611eb490614743565b60405180910390fd5b600a815110158015611ed1575060c8815111155b611f10576040517f08c379a0000000000000000000000000000000000000000000000000000000008152600401611f07906147d5565b60405180910390fd5b60026000815480929190611f23906141aa565b9190505550604051806080016040528060025481526020018381526020018281526020013373ffffffffffffffffffffffffffffffffffffffff16815250600560006002548152602001908152602001600020600082015181600001556020820151816001019081611f95919061454e565b506040820151816002019081611fab919061454e565b5060608201518160030160006101000a81548173ffffffffffffffffffffffffffffffffffffffff021916908373ffffffffffffffffffffffffffffffffffffffff1602179055509050506002547fc4fa4ff02823e9f075c7d98c5ab5d8c8aaae22f0d5949ddac30227ccaf26b26e83833360405161202c939291906147f5565b60405180910390a25050565b600560205280600052604060002060009150905080600001549080600101805461206190613f7d565b80601f016020809104026020016040519081016040528092919081815260200182805461208d90613f7d565b80156120da5780601f106120af576101008083540402835291602001916120da565b820191906000526020600020905b8154815290600101906020018083116120bd57829003601f168201915b5050505050908060020180546120ef90613f7d565b80601f016020809104026020016040519081016040528092919081815260200182805461211b90613f7d565b80156121685780601f1061213d57610100808354040283529160200191612168565b820191906000526020600020905b81548152906001019060200180831161214b57829003601f168201915b5050505050908060030160009054906101000a900473ffffffffffffffffffffffffffffffffffffffff16905084565b6121a06131d0565b600660008373ffffffffffffffffffffffffffffffffffffffff1673ffffffffffffffffffffffffffffffffffffffff1681526020019081526020016000206040518060400160405290816000820180546121fa90613f7d565b80601f016020809104026020016040519081016040528092919081815260200182805461222690613f7d565b80156122735780601f1061224857610100808354040283529160200191612273565b820191906000526020600020905b81548152906001019060200180831161225657829003601f168201915b505050505081526020016001820160009054906101000a900460ff1615151515815250509050919050565b600073ffffffffffffffffffffffffffffffffffffffff166003600083815260200190815260200160002060020160009054906101000a900473ffffffffffffffffffffffffffffffffffffffff1673ffffffffffffffffffffffffffffffffffffffff1603612343576040517f08c379a000000000000000000000000000000000000000000000000000000000815260040161233a9061408c565b60405180910390fd5b6003600082815260200190815260200160002060070160009054906101000a900460ff16156123a7576040517f08c379a000000000000000000000000000000000000000000000000000000000815260040161239e90614316565b60405180910390fd5b6003600082815260200190815260200160002060060160008154809291906123ce906141aa565b91905055503373ffffffffffffffffffffffffffffffffffffffff16817fdfb8e3561bacb6caea7f0960d425956921b9147a631b6e857325c39911ee7e3b6003600085815260200190815260200160002060060154604051612430919061362c565b60405180910390a350565b60025481565b600073ffffffffffffffffffffffffffffffffffffffff166003600084815260200190815260200160002060020160009054906101000a900473ffffffffffffffffffffffffffffffffffffffff1673ffffffffffffffffffffffffffffffffffffffff16036124e6576040517f08c379a00000000000000000000000000000000000000000000000000000000081526004016124dd9061408c565b60405180910390fd5b600073ffffffffffffffffffffffffffffffffffffffff1660046000848152602001908152602001600020600083815260200190815260200160002060030160009054906101000a900473ffffffffffffffffffffffffffffffffffffffff1673ffffffffffffffffffffffffffffffffffffffff160361259c576040517f08c379a00000000000000000000000000000000000000000000000000000000081526004016125939061423e565b60405180910390fd5b60046000838152602001908152602001600020600082815260200190815260200160002060080160009054906101000a900460ff1615612611576040517f08c379a000000000000000000000000000000000000000000000000000000000815260040161260890614886565b60405180910390fd5b6004600083815260200190815260200160002060008281526020019081526020016000206007016000815480929190612649906141aa565b91905055503373ffffffffffffffffffffffffffffffffffffffff1681837f453a2a81d0bb5db7a8249d8acad0a32fa0672ae2bbe791bc72ea9da428b8c012600460008781526020019081526020016000206000868152602001908152602001600020600701546040516126bd919061362c565b60405180910390a45050565b60066020528060005260406000206000915090508060000180546126ec90613f7d565b80601f016020809104026020016040519081016040528092919081815260200182805461271890613f7d565b80156127655780601f1061273a57610100808354040283529160200191612765565b820191906000526020600020905b81548152906001019060200180831161274857829003601f168201915b5050505050908060010160009054906101000a900460ff16905082565b600073ffffffffffffffffffffffffffffffffffffffff166005600084815260200190815260200160002060030160009054906101000a900473ffffffffffffffffffffffffffffffffffffffff1673ffffffffffffffffffffffffffffffffffffffff1603612827576040517f08c379a000000000000000000000000000000000000000000000000000000000815260040161281e90613f2e565b60405180910390fd5b6000815111801561283b57506103e8815111155b61287a576040517f08c379a000000000000000000000000000000000000000000000000000000000815260040161287190614918565b60405180910390fd5b60008081548092919061288c906141aa565b919050555060405180610100016040528060005481526020018381526020013373ffffffffffffffffffffffffffffffffffffffff168152602001600660003373ffffffffffffffffffffffffffffffffffffffff1673ffffffffffffffffffffffffffffffffffffffff168152602001908152602001600020600001805461291490613f7d565b80601f016020809104026020016040519081016040528092919081815260200182805461294090613f7d565b801561298d5780601f106129625761010080835404028352916020019161298d565b820191906000526020600020905b81548152906001019060200180831161297057829003601f168201915b5050505050815260200182815260200142815260200160008152602001600015158152506003600080548152602001908152602001600020600082015181600001556020820151816001015560408201518160020160006101000a81548173ffffffffffffffffffffffffffffffffffffffff021916908373ffffffffffffffffffffffffffffffffffffffff1602179055506060820151816003019081612a35919061454e565b506080820151816004019081612a4b919061454e565b5060a0820151816005015560c0820151816006015560e08201518160070160006101000a81548160ff0219169083151502179055509050503373ffffffffffffffffffffffffffffffffffffffff16826000547f013c77fc90fb7ec58a864c1746a4e71e0e5f6a21537bf68cc90aa35da2f29292600660003373ffffffffffffffffffffffffffffffffffffffff1673ffffffffffffffffffffffffffffffffffffffff1681526020019081526020016000206000018542604051612b1293929190614938565b60405180910390a45050565b806003815110158015612b3357506014815111155b612b72576040517f08c379a0000000000000000000000000000000000000000000000000000000008152600401612b69906149c9565b60405180910390fd5b600073ffffffffffffffffffffffffffffffffffffffff16600782604051612b9a9190614a25565b908152602001604051809103902060009054906101000a900473ffffffffffffffffffffffffffffffffffffffff1673ffffffffffffffffffffffffffffffffffffffff161480612c5457503373ffffffffffffffffffffffffffffffffffffffff16600782604051612c0d9190614a25565b908152602001604051809103902060009054906101000a900473ffffffffffffffffffffffffffffffffffffffff1673ffffffffffffffffffffffffffffffffffffffff16145b612c93576040517f08c379a0000000000000000000000000000000000000000000000000000000008152600401612c8a90614a88565b60405180910390fd5b600660003373ffffffffffffffffffffffffffffffffffffffff1673ffffffffffffffffffffffffffffffffffffffff16815260200190815260200160002060010160009054906101000a900460ff1615612dfa576000600660003373ffffffffffffffffffffffffffffffffffffffff1673ffffffffffffffffffffffffffffffffffffffff1681526020019081526020016000206000018054612d3790613f7d565b80601f0160208091040260200160405190810160405280929190818152602001828054612d6390613f7d565b8015612db05780601f10612d8557610100808354040283529160200191612db0565b820191906000526020600020905b815481529060010190602001808311612d9357829003601f168201915b50505050509050600781604051612dc79190614a25565b908152602001604051809103902060006101000a81549073ffffffffffffffffffffffffffffffffffffffff0219169055505b604051806040016040528083815260200160011515815250600660003373ffffffffffffffffffffffffffffffffffffffff1673ffffffffffffffffffffffffffffffffffffffff1681526020019081526020016000206000820151816000019081612e66919061454e565b5060208201518160010160006101000a81548160ff02191690831515021790555090505033600783604051612e9b9190614a25565b908152602001604051809103902060006101000a81548173ffffffffffffffffffffffffffffffffffffffff021916908373ffffffffffffffffffffffffffffffffffffffff1602179055503373ffffffffffffffffffffffffffffffffffffffff167f74d8e560d2e870c35b35dc882df2a5c96e2bf1cdb5ef6dd2f9cb433c8d04885383604051612f2d9190614aa8565b60405180910390a25050565b6004602052816000526040600020602052806000526040600020600091509150508060000154908060010154908060020154908060030160009054906101000a900473ffffffffffffffffffffffffffffffffffffffff1690806004018054612fa190613f7d565b80601f0160208091040260200160405190810160405280929190818152602001828054612fcd90613f7d565b801561301a5780601f10612fef5761010080835404028352916020019161301a565b820191906000526020600020905b815481529060010190602001808311612ffd57829003601f168201915b50505050509080600501805461302f90613f7d565b80601f016020809104026020016040519081016040528092919081815260200182805461305b90613f7d565b80156130a85780601f1061307d576101008083540402835291602001916130a8565b820191906000526020600020905b81548152906001019060200180831161308b57829003601f168201915b5050505050908060060154908060070154908060080160009054906101000a900460ff16905089565b6040518060800160405280600081526020016060815260200160608152602001600073ffffffffffffffffffffffffffffffffffffffff1681525090565b604051806101200160405280600081526020016000815260200160008152602001600073ffffffffffffffffffffffffffffffffffffffff168152602001606081526020016060815260200160008152602001600081526020016000151581525090565b6040518061010001604052806000815260200160008152602001600073ffffffffffffffffffffffffffffffffffffffff168152602001606081526020016060815260200160008152602001600081526020016000151581525090565b6040518060400160405280606081526020016000151581525090565b6000604051905090565b600080fd5b600080fd5b6000819050919050565b61321381613200565b811461321e57600080fd5b50565b6000813590506132308161320a565b92915050565b60006020828403121561324c5761324b6131f6565b5b600061325a84828501613221565b91505092915050565b61326c81613200565b82525050565b600081519050919050565b600082825260208201905092915050565b60005b838110156132ac578082015181840152602081019050613291565b60008484015250505050565b6000601f19601f8301169050919050565b60006132d482613272565b6132de818561327d565b93506132ee81856020860161328e565b6132f7816132b8565b840191505092915050565b600073ffffffffffffffffffffffffffffffffffffffff82169050919050565b600061332d82613302565b9050919050565b61333d81613322565b82525050565b600060808301600083015161335b6000860182613263565b506020830151848203602086015261337382826132c9565b9150506040830151848203604086015261338d82826132c9565b91505060608301516133a26060860182613334565b508091505092915050565b600060208201905081810360008301526133c78184613343565b905092915050565b600081519050919050565b600082825260208201905092915050565b6000819050602082019050919050565b60006080830160008301516134136000860182613263565b506020830151848203602086015261342b82826132c9565b9150506040830151848203604086015261344582826132c9565b915050606083015161345a6060860182613334565b508091505092915050565b600061347183836133fb565b905092915050565b6000602082019050919050565b6000613491826133cf565b61349b81856133da565b9350836020820285016134ad856133eb565b8060005b858110156134e957848403895281516134ca8582613465565b94506134d583613479565b925060208a019950506001810190506134b1565b50829750879550505050505092915050565b600060208201905081810360008301526135158184613486565b905092915050565b61352681613200565b82525050565b61353581613322565b82525050565b600082825260208201905092915050565b600061355782613272565b613561818561353b565b935061357181856020860161328e565b61357a816132b8565b840191505092915050565b60008115159050919050565b61359a81613585565b82525050565b6000610100820190506135b6600083018b61351d565b6135c3602083018a61351d565b6135d0604083018961352c565b81810360608301526135e2818861354c565b905081810360808301526135f6818761354c565b905061360560a083018661351d565b61361260c083018561351d565b61361f60e0830184613591565b9998505050505050505050565b6000602082019050613641600083018461351d565b92915050565b600081519050919050565b600082825260208201905092915050565b6000819050602082019050919050565b61367c81613585565b82525050565b60006101208301600083015161369b6000860182613263565b5060208301516136ae6020860182613263565b5060408301516136c16040860182613263565b5060608301516136d46060860182613334565b50608083015184820360808601526136ec82826132c9565b91505060a083015184820360a086015261370682826132c9565b91505060c083015161371b60c0860182613263565b5060e083015161372e60e0860182613263565b50610100830151613743610100860182613673565b508091505092915050565b600061375a8383613682565b905092915050565b6000602082019050919050565b600061377a82613647565b6137848185613652565b93508360208202850161379685613663565b8060005b858110156137d257848403895281516137b3858261374e565b94506137be83613762565b925060208a0199505060018101905061379a565b50829750879550505050505092915050565b600060208201905081810360008301526137fe818461376f565b905092915050565b6000806040838503121561381d5761381c6131f6565b5b600061382b85828601613221565b925050602061383c85828601613221565b9150509250929050565b60006101008301600083015161385f6000860182613263565b5060208301516138726020860182613263565b5060408301516138856040860182613334565b506060830151848203606086015261389d82826132c9565b915050608083015184820360808601526138b782826132c9565b91505060a08301516138cc60a0860182613263565b5060c08301516138df60c0860182613263565b5060e08301516138f260e0860182613673565b508091505092915050565b600060208201905081810360008301526139178184613846565b905092915050565b600080fd5b600080fd5b7f4e487b7100000000000000000000000000000000000000000000000000000000600052604160045260246000fd5b613961826132b8565b810181811067ffffffffffffffff821117156139805761397f613929565b5b80604052505050565b60006139936131ec565b905061399f8282613958565b919050565b600067ffffffffffffffff8211156139bf576139be613929565b5b6139c8826132b8565b9050602081019050919050565b82818337600083830152505050565b60006139f76139f2846139a4565b613989565b905082815260208101848484011115613a1357613a12613924565b5b613a1e8482856139d5565b509392505050565b600082601f830112613a3b57613a3a61391f565b5b8135613a4b8482602086016139e4565b91505092915050565b60008060408385031215613a6b57613a6a6131f6565b5b6000613a7985828601613221565b925050602083013567ffffffffffffffff811115613a9a57613a996131fb565b5b613aa685828601613a26565b9150509250929050565b600081519050919050565b600082825260208201905092915050565b6000819050602082019050919050565b600061010083016000830151613af56000860182613263565b506020830151613b086020860182613263565b506040830151613b1b6040860182613334565b5060608301518482036060860152613b3382826132c9565b91505060808301518482036080860152613b4d82826132c9565b91505060a0830151613b6260a0860182613263565b5060c0830151613b7560c0860182613263565b5060e0830151613b8860e0860182613673565b508091505092915050565b6000613b9f8383613adc565b905092915050565b6000602082019050919050565b6000613bbf82613ab0565b613bc98185613abb565b935083602082028501613bdb85613acc565b8060005b85811015613c175784840389528151613bf88582613b93565b9450613c0383613ba7565b925060208a01995050600181019050613bdf565b50829750879550505050505092915050565b60006020820190508181036000830152613c438184613bb4565b905092915050565b60008060408385031215613c6257613c616131f6565b5b600083013567ffffffffffffffff811115613c8057613c7f6131fb565b5b613c8c85828601613a26565b925050602083013567ffffffffffffffff811115613cad57613cac6131fb565b5b613cb985828601613a26565b9150509250929050565b6000608082019050613cd8600083018761351d565b8181036020830152613cea818661354c565b90508181036040830152613cfe818561354c565b9050613d0d606083018461352c565b95945050505050565b613d1f81613322565b8114613d2a57600080fd5b50565b600081359050613d3c81613d16565b92915050565b600060208284031215613d5857613d576131f6565b5b6000613d6684828501613d2d565b91505092915050565b60006040830160008301518482036000860152613d8c82826132c9565b9150506020830151613da16020860182613673565b508091505092915050565b60006020820190508181036000830152613dc68184613d6f565b905092915050565b60006040820190508181036000830152613de8818561354c565b9050613df76020830184613591565b9392505050565b600060208284031215613e1457613e136131f6565b5b600082013567ffffffffffffffff811115613e3257613e316131fb565b5b613e3e84828501613a26565b91505092915050565b600061012082019050613e5d600083018c61351d565b613e6a602083018b61351d565b613e77604083018a61351d565b613e84606083018961352c565b8181036080830152613e96818861354c565b905081810360a0830152613eaa818761354c565b9050613eb960c083018661351d565b613ec660e083018561351d565b613ed4610100830184613591565b9a9950505050505050505050565b7f5375622d636f6d6d756e69747920646f6573206e6f7420657869737400000000600082015250565b6000613f18601c8361353b565b9150613f2382613ee2565b602082019050919050565b60006020820190508181036000830152613f4781613f0b565b9050919050565b7f4e487b7100000000000000000000000000000000000000000000000000000000600052602260045260246000fd5b60006002820490506001821680613f9557607f821691505b602082108103613fa857613fa7613f4e565b5b50919050565b7f4f6e6c79207375622d636f6d6d756e6974792063726561746f722063616e207060008201527f6572666f726d207468697320616374696f6e0000000000000000000000000000602082015250565b600061400a60328361353b565b915061401582613fae565b604082019050919050565b6000602082019050818103600083015261403981613ffd565b9050919050565b7f506f737420646f6573206e6f7420657869737400000000000000000000000000600082015250565b600061407660138361353b565b915061408182614040565b602082019050919050565b600060208201905081810360008301526140a581614069565b9050919050565b7f506f737420616c72656164792064656c65746564000000000000000000000000600082015250565b60006140e260148361353b565b91506140ed826140ac565b602082019050919050565b60006020820190508181036000830152614111816140d5565b9050919050565b7f4e487b7100000000000000000000000000000000000000000000000000000000600052601160045260246000fd5b600061415282613200565b915061415d83613200565b925082820390508181111561417557614174614118565b5b92915050565b7f4e487b7100000000000000000000000000000000000000000000000000000000600052603260045260246000fd5b60006141b582613200565b91507fffffffffffffffffffffffffffffffffffffffffffffffffffffffffffffffff82036141e7576141e6614118565b5b600182019050919050565b7f436f6d6d656e7420646f6573206e6f7420657869737400000000000000000000600082015250565b600061422860168361353b565b9150614233826141f2565b602082019050919050565b600060208201905081810360008301526142578161421b565b9050919050565b7f436f6d6d656e7420616c72656164792064656c65746564000000000000000000600082015250565b600061429460178361353b565b915061429f8261425e565b602082019050919050565b600060208201905081810360008301526142c381614287565b9050919050565b7f506f73742069732064656c657465640000000000000000000000000000000000600082015250565b6000614300600f8361353b565b915061430b826142ca565b602082019050919050565b6000602082019050818103600083015261432f816142f3565b9050919050565b7f436f6e74656e74206d75737420626520312d3530302063686172616374657273600082015250565b600061436c60208361353b565b915061437782614336565b602082019050919050565b6000602082019050818103600083015261439b8161435f565b9050919050565b60008190508160005260206000209050919050565b60006020601f8301049050919050565b600082821b905092915050565b6000600883026144047fffffffffffffffffffffffffffffffffffffffffffffffffffffffffffffffff826143c7565b61440e86836143c7565b95508019841693508086168417925050509392505050565b6000819050919050565b600061444b61444661444184613200565b614426565b613200565b9050919050565b6000819050919050565b61446583614430565b61447961447182614452565b8484546143d4565b825550505050565b600090565b61448e614481565b61449981848461445c565b505050565b5b818110156144bd576144b2600082614486565b60018101905061449f565b5050565b601f821115614502576144d3816143a2565b6144dc846143b7565b810160208510156144eb578190505b6144ff6144f7856143b7565b83018261449e565b50505b505050565b600082821c905092915050565b600061452560001984600802614507565b1980831691505092915050565b600061453e8383614514565b9150826002028217905092915050565b61455782613272565b67ffffffffffffffff8111156145705761456f613929565b5b61457a8254613f7d565b6145858282856144c1565b600060209050601f8311600181146145b857600084156145a6578287015190505b6145b08582614532565b865550614618565b601f1984166145c6866143a2565b60005b828110156145ee578489015182556001820191506020850194506020810190506145c9565b8683101561460b5784890151614607601f891682614514565b8355505b6001600288020188555050505b505050505050565b6000815461462d81613f7d565b614637818661353b565b9450600182166000811461465257600181146146685761469b565b60ff19831686528115156020028601935061469b565b614671856143a2565b60005b8381101561469357815481890152600182019150602081019050614674565b808801955050505b50505092915050565b60006080820190506146b9600083018761352c565b81810360208301526146cb8186614620565b905081810360408301526146df818561354c565b90506146ee606083018461351d565b95945050505050565b7f4e616d65206d75737420626520332d3530206368617261637465727300000000600082015250565b600061472d601c8361353b565b9150614738826146f7565b602082019050919050565b6000602082019050818103600083015261475c81614720565b9050919050565b7f4465736372697074696f6e206d7573742062652031302d32303020636861726160008201527f6374657273000000000000000000000000000000000000000000000000000000602082015250565b60006147bf60258361353b565b91506147ca82614763565b604082019050919050565b600060208201905081810360008301526147ee816147b2565b9050919050565b6000606082019050818103600083015261480f818661354c565b90508181036020830152614823818561354c565b9050614832604083018461352c565b949350505050565b7f436f6d6d656e742069732064656c657465640000000000000000000000000000600082015250565b600061487060128361353b565b915061487b8261483a565b602082019050919050565b6000602082019050818103600083015261489f81614863565b9050919050565b7f436f6e74656e74206d75737420626520312d313030302063686172616374657260008201527f7300000000000000000000000000000000000000000000000000000000000000602082015250565b600061490260218361353b565b915061490d826148a6565b604082019050919050565b60006020820190508181036000830152614931816148f5565b9050919050565b600060608201905081810360008301526149528186614620565b90508181036020830152614966818561354c565b9050614975604083018461351d565b949350505050565b7f557365726e616d65206d75737420626520332d32302063686172616374657273600082015250565b60006149b360208361353b565b91506149be8261497d565b602082019050919050565b600060208201905081810360008301526149e2816149a6565b9050919050565b600081905092915050565b60006149ff82613272565b614a0981856149e9565b9350614a1981856020860161328e565b80840191505092915050565b6000614a3182846149f4565b915081905092915050565b7f557365726e616d6520616c72656164792074616b656e00000000000000000000600082015250565b6000614a7260168361353b565b9150614a7d82614a3c565b602082019050919050565b60006020820190508181036000830152614aa181614a65565b9050919050565b60006020820190508181036000830152614ac2818461354c565b90509291505056fea26469706673582212206e55a49e71216cc5b95a7370311ced298b9306d85f23afc16179f300daa9e58964736f6c63430008140033",
  "linkReferences": {},
  "deployedLinkReferences": {}
}